{
  "_format": "hh-sol-artifact-1",
  "contractName": "OriginToken",
  "sourceName": "@royalt/contracts/src/v0.0/OriginToken.sol",
  "abi": [
    {
      "inputs": [
        {
          "internalType": "address",
          "name": "_royaltyToken",
          "type": "address"
        },
        {
          "internalType": "address",
          "name": "_releaseToken",
          "type": "address"
        }
      ],
      "stateMutability": "nonpayable",
      "type": "constructor"
    },
    {
      "anonymous": false,
      "inputs": [
        {
          "indexed": true,
          "internalType": "address",
          "name": "owner",
          "type": "address"
        },
        {
          "indexed": true,
          "internalType": "address",
          "name": "approved",
          "type": "address"
        },
        {
          "indexed": true,
          "internalType": "uint256",
          "name": "tokenId",
          "type": "uint256"
        }
      ],
      "name": "Approval",
      "type": "event"
    },
    {
      "anonymous": false,
      "inputs": [
        {
          "indexed": true,
          "internalType": "address",
          "name": "owner",
          "type": "address"
        },
        {
          "indexed": true,
          "internalType": "address",
          "name": "operator",
          "type": "address"
        },
        {
          "indexed": false,
          "internalType": "bool",
          "name": "approved",
          "type": "bool"
        }
      ],
      "name": "ApprovalForAll",
      "type": "event"
    },
    {
      "anonymous": false,
      "inputs": [
        {
          "indexed": true,
          "internalType": "address",
          "name": "previousOwner",
          "type": "address"
        },
        {
          "indexed": true,
          "internalType": "address",
          "name": "newOwner",
          "type": "address"
        }
      ],
      "name": "OwnershipTransferred",
      "type": "event"
    },
    {
      "anonymous": false,
      "inputs": [
        {
          "indexed": true,
          "internalType": "address",
          "name": "from",
          "type": "address"
        },
        {
          "indexed": true,
          "internalType": "address",
          "name": "to",
          "type": "address"
        },
        {
          "indexed": true,
          "internalType": "uint256",
          "name": "tokenId",
          "type": "uint256"
        }
      ],
      "name": "Transfer",
      "type": "event"
    },
    {
      "inputs": [
        {
          "internalType": "uint256",
          "name": "_tokenId",
          "type": "uint256"
        },
        {
          "internalType": "address",
          "name": "_release",
          "type": "address"
        }
      ],
      "name": "addRelease",
      "outputs": [],
      "stateMutability": "nonpayable",
      "type": "function"
    },
    {
      "inputs": [
        {
          "internalType": "address",
          "name": "to",
          "type": "address"
        },
        {
          "internalType": "uint256",
          "name": "tokenId",
          "type": "uint256"
        }
      ],
      "name": "approve",
      "outputs": [],
      "stateMutability": "nonpayable",
      "type": "function"
    },
    {
      "inputs": [
        {
          "internalType": "address",
          "name": "owner",
          "type": "address"
        }
      ],
      "name": "balanceOf",
      "outputs": [
        {
          "internalType": "uint256",
          "name": "",
          "type": "uint256"
        }
      ],
      "stateMutability": "view",
      "type": "function"
    },
    {
      "inputs": [
        {
          "internalType": "uint256",
          "name": "tokenId",
          "type": "uint256"
        }
      ],
      "name": "getApproved",
      "outputs": [
        {
          "internalType": "address",
          "name": "",
          "type": "address"
        }
      ],
      "stateMutability": "view",
      "type": "function"
    },
    {
      "inputs": [
        {
          "internalType": "address",
          "name": "owner",
          "type": "address"
        },
        {
          "internalType": "address",
          "name": "operator",
          "type": "address"
        }
      ],
      "name": "isApprovedForAll",
      "outputs": [
        {
          "internalType": "bool",
          "name": "",
          "type": "bool"
        }
      ],
      "stateMutability": "view",
      "type": "function"
    },
    {
      "inputs": [
        {
          "internalType": "string",
          "name": "_tokenURI",
          "type": "string"
        }
      ],
      "name": "mint",
      "outputs": [
        {
          "internalType": "bool",
          "name": "",
          "type": "bool"
        }
      ],
      "stateMutability": "payable",
      "type": "function"
    },
    {
      "inputs": [],
      "name": "mintFee",
      "outputs": [
        {
          "internalType": "uint256",
          "name": "",
          "type": "uint256"
        }
      ],
      "stateMutability": "view",
      "type": "function"
    },
    {
      "inputs": [],
      "name": "name",
      "outputs": [
        {
          "internalType": "string",
          "name": "",
          "type": "string"
        }
      ],
      "stateMutability": "view",
      "type": "function"
    },
    {
      "inputs": [],
      "name": "owner",
      "outputs": [
        {
          "internalType": "address",
          "name": "",
          "type": "address"
        }
      ],
      "stateMutability": "view",
      "type": "function"
    },
    {
      "inputs": [
        {
          "internalType": "uint256",
          "name": "tokenId",
          "type": "uint256"
        }
      ],
      "name": "ownerOf",
      "outputs": [
        {
          "internalType": "address",
          "name": "",
          "type": "address"
        }
      ],
      "stateMutability": "view",
      "type": "function"
    },
    {
      "inputs": [],
      "name": "releaseToken",
      "outputs": [
        {
          "internalType": "address",
          "name": "",
          "type": "address"
        }
      ],
      "stateMutability": "view",
      "type": "function"
    },
    {
      "inputs": [
        {
          "internalType": "uint256",
          "name": "",
          "type": "uint256"
        },
        {
          "internalType": "uint256",
          "name": "",
          "type": "uint256"
        }
      ],
      "name": "releases",
      "outputs": [
        {
          "internalType": "uint256",
          "name": "",
          "type": "uint256"
        }
      ],
      "stateMutability": "view",
      "type": "function"
    },
    {
      "inputs": [],
      "name": "renounceOwnership",
      "outputs": [],
      "stateMutability": "nonpayable",
      "type": "function"
    },
    {
      "inputs": [
        {
          "internalType": "uint256",
          "name": "",
          "type": "uint256"
        },
        {
          "internalType": "uint256",
          "name": "",
          "type": "uint256"
        }
      ],
      "name": "royalties",
      "outputs": [
        {
          "internalType": "uint256",
          "name": "",
          "type": "uint256"
        }
      ],
      "stateMutability": "view",
      "type": "function"
    },
    {
      "inputs": [],
      "name": "royaltyToken",
      "outputs": [
        {
          "internalType": "address",
          "name": "",
          "type": "address"
        }
      ],
      "stateMutability": "view",
      "type": "function"
    },
    {
      "inputs": [
        {
          "internalType": "address",
          "name": "from",
          "type": "address"
        },
        {
          "internalType": "address",
          "name": "to",
          "type": "address"
        },
        {
          "internalType": "uint256",
          "name": "tokenId",
          "type": "uint256"
        }
      ],
      "name": "safeTransferFrom",
      "outputs": [],
      "stateMutability": "nonpayable",
      "type": "function"
    },
    {
      "inputs": [
        {
          "internalType": "address",
          "name": "from",
          "type": "address"
        },
        {
          "internalType": "address",
          "name": "to",
          "type": "address"
        },
        {
          "internalType": "uint256",
          "name": "tokenId",
          "type": "uint256"
        },
        {
          "internalType": "bytes",
          "name": "_data",
          "type": "bytes"
        }
      ],
      "name": "safeTransferFrom",
      "outputs": [],
      "stateMutability": "nonpayable",
      "type": "function"
    },
    {
      "inputs": [
        {
          "internalType": "address",
          "name": "operator",
          "type": "address"
        },
        {
          "internalType": "bool",
          "name": "approved",
          "type": "bool"
        }
      ],
      "name": "setApprovalForAll",
      "outputs": [],
      "stateMutability": "nonpayable",
      "type": "function"
    },
    {
      "inputs": [
        {
          "internalType": "uint256",
          "name": "_fee",
          "type": "uint256"
        }
      ],
      "name": "setMintFee",
      "outputs": [],
      "stateMutability": "nonpayable",
      "type": "function"
    },
    {
      "inputs": [
        {
          "internalType": "bytes4",
          "name": "interfaceId",
          "type": "bytes4"
        }
      ],
      "name": "supportsInterface",
      "outputs": [
        {
          "internalType": "bool",
          "name": "",
          "type": "bool"
        }
      ],
      "stateMutability": "view",
      "type": "function"
    },
    {
      "inputs": [],
      "name": "symbol",
      "outputs": [
        {
          "internalType": "string",
          "name": "",
          "type": "string"
        }
      ],
      "stateMutability": "view",
      "type": "function"
    },
    {
      "inputs": [
        {
          "internalType": "uint256",
          "name": "tokenId",
          "type": "uint256"
        }
      ],
      "name": "tokenURI",
      "outputs": [
        {
          "internalType": "string",
          "name": "",
          "type": "string"
        }
      ],
      "stateMutability": "view",
      "type": "function"
    },
    {
      "inputs": [
        {
          "internalType": "address",
          "name": "from",
          "type": "address"
        },
        {
          "internalType": "address",
          "name": "to",
          "type": "address"
        },
        {
          "internalType": "uint256",
          "name": "tokenId",
          "type": "uint256"
        }
      ],
      "name": "transferFrom",
      "outputs": [],
      "stateMutability": "nonpayable",
      "type": "function"
    },
    {
      "inputs": [
        {
          "internalType": "address",
          "name": "newOwner",
          "type": "address"
        }
      ],
      "name": "transferOwnership",
      "outputs": [],
      "stateMutability": "nonpayable",
      "type": "function"
    }
  ],
  "bytecode": "0x60806040523480156200001157600080fd5b5060405162003871380380620038718339818101604052810190620000379190620002e9565b6040518060400160405280600b81526020017f4f726967696e546f6b656e0000000000000000000000000000000000000000008152506040518060400160405280600381526020017f4f475400000000000000000000000000000000000000000000000000000000008152508160009080519060200190620000bb92919062000222565b508060019080519060200190620000d492919062000222565b5050506000620000e96200021a60201b60201c565b905080600760006101000a81548173ffffffffffffffffffffffffffffffffffffffff021916908373ffffffffffffffffffffffffffffffffffffffff1602179055508073ffffffffffffffffffffffffffffffffffffffff16600073ffffffffffffffffffffffffffffffffffffffff167f8be0079c531659141344cd1fd0a4f28419497f9722a3daafe3b4186f6b6457e060405160405180910390a35081600960006101000a81548173ffffffffffffffffffffffffffffffffffffffff021916908373ffffffffffffffffffffffffffffffffffffffff16021790555080600a60006101000a81548173ffffffffffffffffffffffffffffffffffffffff021916908373ffffffffffffffffffffffffffffffffffffffff1602179055506000600d819055505050620003dd565b600033905090565b82805462000230906200035e565b90600052602060002090601f016020900481019282620002545760008555620002a0565b82601f106200026f57805160ff1916838001178555620002a0565b82800160010185558215620002a0579182015b828111156200029f57825182559160200191906001019062000282565b5b509050620002af9190620002b3565b5090565b5b80821115620002ce576000816000905550600101620002b4565b5090565b600081519050620002e381620003c3565b92915050565b60008060408385031215620002fd57600080fd5b60006200030d85828601620002d2565b92505060206200032085828601620002d2565b9150509250929050565b600062000337826200033e565b9050919050565b600073ffffffffffffffffffffffffffffffffffffffff82169050919050565b600060028204905060018216806200037757607f821691505b602082108114156200038e576200038d62000394565b5b50919050565b7f4e487b7100000000000000000000000000000000000000000000000000000000600052602260045260246000fd5b620003ce816200032a565b8114620003da57600080fd5b50565b61348480620003ed6000396000f3fe60806040526004361061014b5760003560e01c80638924af74116100b6578063c87b56dd1161006f578063c87b56dd146104a2578063d85d3d27146104df578063e985e9c51461050f578063ec715a311461054c578063eddd0d9c14610577578063f2fde38b146105a05761014b565b80638924af74146103925780638da5cb5b146103cf57806395d89b41146103fa578063a22cb46514610425578063b88d4fde1461044e578063b96354cf146104775761014b565b806342842e0e1161010857806342842e0e14610272578063503c75a71461029b5780635dc4f1ec146102c45780636352211e1461030157806370a082311461033e578063715018a61461037b5761014b565b806301ffc9a71461015057806306fdde031461018d578063081812fc146101b8578063095ea7b3146101f557806313966db51461021e57806323b872dd14610249575b600080fd5b34801561015c57600080fd5b5061017760048036038101906101729190612393565b6105c9565b6040516101849190612d5c565b60405180910390f35b34801561019957600080fd5b506101a26106ab565b6040516101af9190612d77565b60405180910390f35b3480156101c457600080fd5b506101df60048036038101906101da9190612426565b61073d565b6040516101ec9190612cf5565b60405180910390f35b34801561020157600080fd5b5061021c60048036038101906102179190612357565b6107c2565b005b34801561022a57600080fd5b506102336108da565b6040516102409190613019565b60405180910390f35b34801561025557600080fd5b50610270600480360381019061026b9190612251565b6108e0565b005b34801561027e57600080fd5b5061029960048036038101906102949190612251565b610940565b005b3480156102a757600080fd5b506102c260048036038101906102bd919061244f565b610960565b005b3480156102d057600080fd5b506102eb60048036038101906102e6919061248b565b6109da565b6040516102f89190613019565b60405180910390f35b34801561030d57600080fd5b5061032860048036038101906103239190612426565b610a0b565b6040516103359190612cf5565b60405180910390f35b34801561034a57600080fd5b50610365600480360381019061036091906121ec565b610abd565b6040516103729190613019565b60405180910390f35b34801561038757600080fd5b50610390610b75565b005b34801561039e57600080fd5b506103b960048036038101906103b4919061248b565b610cb2565b6040516103c69190613019565b60405180910390f35b3480156103db57600080fd5b506103e4610ce3565b6040516103f19190612cf5565b60405180910390f35b34801561040657600080fd5b5061040f610d0d565b60405161041c9190612d77565b60405180910390f35b34801561043157600080fd5b5061044c6004803603810190610447919061231b565b610d9f565b005b34801561045a57600080fd5b50610475600480360381019061047091906122a0565b610f20565b005b34801561048357600080fd5b5061048c610f82565b6040516104999190612cf5565b60405180910390f35b3480156104ae57600080fd5b506104c960048036038101906104c49190612426565b610fa8565b6040516104d69190612d77565b60405180910390f35b6104f960048036038101906104f491906123e5565b6110fa565b6040516105069190612d5c565b60405180910390f35b34801561051b57600080fd5b5061053660048036038101906105319190612215565b611177565b6040516105439190612d5c565b60405180910390f35b34801561055857600080fd5b5061056161120b565b60405161056e9190612cf5565b60405180910390f35b34801561058357600080fd5b5061059e60048036038101906105999190612426565b611231565b005b3480156105ac57600080fd5b506105c760048036038101906105c291906121ec565b6112b7565b005b60007f80ac58cd000000000000000000000000000000000000000000000000000000007bffffffffffffffffffffffffffffffffffffffffffffffffffffffff1916827bffffffffffffffffffffffffffffffffffffffffffffffffffffffff1916148061069457507f5b5e139f000000000000000000000000000000000000000000000000000000007bffffffffffffffffffffffffffffffffffffffffffffffffffffffff1916827bffffffffffffffffffffffffffffffffffffffffffffffffffffffff1916145b806106a457506106a382611463565b5b9050919050565b6060600080546106ba90613279565b80601f01602080910402602001604051908101604052809291908181526020018280546106e690613279565b80156107335780601f1061070857610100808354040283529160200191610733565b820191906000526020600020905b81548152906001019060200180831161071657829003601f168201915b5050505050905090565b6000610748826114cd565b610787576040517f08c379a000000000000000000000000000000000000000000000000000000000815260040161077e90612f39565b60405180910390fd5b6004600083815260200190815260200160002060009054906101000a900473ffffffffffffffffffffffffffffffffffffffff169050919050565b60006107cd82610a0b565b90508073ffffffffffffffffffffffffffffffffffffffff168373ffffffffffffffffffffffffffffffffffffffff16141561083e576040517f08c379a000000000000000000000000000000000000000000000000000000000815260040161083590612fb9565b60405180910390fd5b8073ffffffffffffffffffffffffffffffffffffffff1661085d611539565b73ffffffffffffffffffffffffffffffffffffffff16148061088c575061088b81610886611539565b611177565b5b6108cb576040517f08c379a00000000000000000000000000000000000000000000000000000000081526004016108c290612e79565b60405180910390fd5b6108d58383611541565b505050565b600d5481565b6108f16108eb611539565b826115fa565b610930576040517f08c379a000000000000000000000000000000000000000000000000000000000815260040161092790612fd9565b60405180910390fd5b61093b8383836116d8565b505050565b61095b83838360405180602001604052806000815250610f20565b505050565b3373ffffffffffffffffffffffffffffffffffffffff1661098083610a0b565b73ffffffffffffffffffffffffffffffffffffffff16146109d6576040517f08c379a00000000000000000000000000000000000000000000000000000000081526004016109cd90612e59565b60405180910390fd5b5050565b600b60205281600052604060002081815481106109f657600080fd5b90600052602060002001600091509150505481565b6000806002600084815260200190815260200160002060009054906101000a900473ffffffffffffffffffffffffffffffffffffffff169050600073ffffffffffffffffffffffffffffffffffffffff168173ffffffffffffffffffffffffffffffffffffffff161415610ab4576040517f08c379a0000000000000000000000000000000000000000000000000000000008152600401610aab90612eb9565b60405180910390fd5b80915050919050565b60008073ffffffffffffffffffffffffffffffffffffffff168273ffffffffffffffffffffffffffffffffffffffff161415610b2e576040517f08c379a0000000000000000000000000000000000000000000000000000000008152600401610b2590612e99565b60405180910390fd5b600360008373ffffffffffffffffffffffffffffffffffffffff1673ffffffffffffffffffffffffffffffffffffffff168152602001908152602001600020549050919050565b610b7d611539565b73ffffffffffffffffffffffffffffffffffffffff16610b9b610ce3565b73ffffffffffffffffffffffffffffffffffffffff1614610bf1576040517f08c379a0000000000000000000000000000000000000000000000000000000008152600401610be890612f59565b60405180910390fd5b600073ffffffffffffffffffffffffffffffffffffffff16600760009054906101000a900473ffffffffffffffffffffffffffffffffffffffff1673ffffffffffffffffffffffffffffffffffffffff167f8be0079c531659141344cd1fd0a4f28419497f9722a3daafe3b4186f6b6457e060405160405180910390a36000600760006101000a81548173ffffffffffffffffffffffffffffffffffffffff021916908373ffffffffffffffffffffffffffffffffffffffff160217905550565b600c6020528160005260406000208181548110610cce57600080fd5b90600052602060002001600091509150505481565b6000600760009054906101000a900473ffffffffffffffffffffffffffffffffffffffff16905090565b606060018054610d1c90613279565b80601f0160208091040260200160405190810160405280929190818152602001828054610d4890613279565b8015610d955780601f10610d6a57610100808354040283529160200191610d95565b820191906000526020600020905b815481529060010190602001808311610d7857829003601f168201915b5050505050905090565b610da7611539565b73ffffffffffffffffffffffffffffffffffffffff168273ffffffffffffffffffffffffffffffffffffffff161415610e15576040517f08c379a0000000000000000000000000000000000000000000000000000000008152600401610e0c90612e19565b60405180910390fd5b8060056000610e22611539565b73ffffffffffffffffffffffffffffffffffffffff1673ffffffffffffffffffffffffffffffffffffffff16815260200190815260200160002060008473ffffffffffffffffffffffffffffffffffffffff1673ffffffffffffffffffffffffffffffffffffffff16815260200190815260200160002060006101000a81548160ff0219169083151502179055508173ffffffffffffffffffffffffffffffffffffffff16610ecf611539565b73ffffffffffffffffffffffffffffffffffffffff167f17307eab39ab6107e8899845ad3d59bd9653f200f220920489ca2b5937696c3183604051610f149190612d5c565b60405180910390a35050565b610f31610f2b611539565b836115fa565b610f70576040517f08c379a0000000000000000000000000000000000000000000000000000000008152600401610f6790612fd9565b60405180910390fd5b610f7c84848484611934565b50505050565b600960009054906101000a900473ffffffffffffffffffffffffffffffffffffffff1681565b6060610fb3826114cd565b610ff2576040517f08c379a0000000000000000000000000000000000000000000000000000000008152600401610fe990612f19565b60405180910390fd5b600060066000848152602001908152602001600020805461101290613279565b80601f016020809104026020016040519081016040528092919081815260200182805461103e90613279565b801561108b5780601f106110605761010080835404028352916020019161108b565b820191906000526020600020905b81548152906001019060200180831161106e57829003601f168201915b50505050509050600061109c611990565b90506000815114156110b25781925050506110f5565b6000825111156110e75780826040516020016110cf929190612cd1565b604051602081830303815290604052925050506110f5565b6110f0846119a7565b925050505b919050565b6000600d54341015611141576040517f08c379a000000000000000000000000000000000000000000000000000000000815260040161113890612ff9565b60405180910390fd5b61114b6008611a4e565b60006111576008611a64565b90506111633382611a72565b61116d8184611c40565b6001915050919050565b6000600560008473ffffffffffffffffffffffffffffffffffffffff1673ffffffffffffffffffffffffffffffffffffffff16815260200190815260200160002060008373ffffffffffffffffffffffffffffffffffffffff1673ffffffffffffffffffffffffffffffffffffffff16815260200190815260200160002060009054906101000a900460ff16905092915050565b600a60009054906101000a900473ffffffffffffffffffffffffffffffffffffffff1681565b611239611539565b73ffffffffffffffffffffffffffffffffffffffff16611257610ce3565b73ffffffffffffffffffffffffffffffffffffffff16146112ad576040517f08c379a00000000000000000000000000000000000000000000000000000000081526004016112a490612f59565b60405180910390fd5b80600d8190555050565b6112bf611539565b73ffffffffffffffffffffffffffffffffffffffff166112dd610ce3565b73ffffffffffffffffffffffffffffffffffffffff1614611333576040517f08c379a000000000000000000000000000000000000000000000000000000000815260040161132a90612f59565b60405180910390fd5b600073ffffffffffffffffffffffffffffffffffffffff168173ffffffffffffffffffffffffffffffffffffffff1614156113a3576040517f08c379a000000000000000000000000000000000000000000000000000000000815260040161139a90612db9565b60405180910390fd5b8073ffffffffffffffffffffffffffffffffffffffff16600760009054906101000a900473ffffffffffffffffffffffffffffffffffffffff1673ffffffffffffffffffffffffffffffffffffffff167f8be0079c531659141344cd1fd0a4f28419497f9722a3daafe3b4186f6b6457e060405160405180910390a380600760006101000a81548173ffffffffffffffffffffffffffffffffffffffff021916908373ffffffffffffffffffffffffffffffffffffffff16021790555050565b60007f01ffc9a7000000000000000000000000000000000000000000000000000000007bffffffffffffffffffffffffffffffffffffffffffffffffffffffff1916827bffffffffffffffffffffffffffffffffffffffffffffffffffffffff1916149050919050565b60008073ffffffffffffffffffffffffffffffffffffffff166002600084815260200190815260200160002060009054906101000a900473ffffffffffffffffffffffffffffffffffffffff1673ffffffffffffffffffffffffffffffffffffffff1614159050919050565b600033905090565b816004600083815260200190815260200160002060006101000a81548173ffffffffffffffffffffffffffffffffffffffff021916908373ffffffffffffffffffffffffffffffffffffffff160217905550808273ffffffffffffffffffffffffffffffffffffffff166115b483610a0b565b73ffffffffffffffffffffffffffffffffffffffff167f8c5be1e5ebec7d5bd14f71427d1e84f3dd0314c0f7b2291e5b200ac8c7c3b92560405160405180910390a45050565b6000611605826114cd565b611644576040517f08c379a000000000000000000000000000000000000000000000000000000000815260040161163b90612e39565b60405180910390fd5b600061164f83610a0b565b90508073ffffffffffffffffffffffffffffffffffffffff168473ffffffffffffffffffffffffffffffffffffffff1614806116be57508373ffffffffffffffffffffffffffffffffffffffff166116a68461073d565b73ffffffffffffffffffffffffffffffffffffffff16145b806116cf57506116ce8185611177565b5b91505092915050565b8273ffffffffffffffffffffffffffffffffffffffff166116f882610a0b565b73ffffffffffffffffffffffffffffffffffffffff161461174e576040517f08c379a000000000000000000000000000000000000000000000000000000000815260040161174590612f79565b60405180910390fd5b600073ffffffffffffffffffffffffffffffffffffffff168273ffffffffffffffffffffffffffffffffffffffff1614156117be576040517f08c379a00000000000000000000000000000000000000000000000000000000081526004016117b590612df9565b60405180910390fd5b6117c9838383611cb4565b6117d4600082611541565b6001600360008573ffffffffffffffffffffffffffffffffffffffff1673ffffffffffffffffffffffffffffffffffffffff1681526020019081526020016000206000828254611824919061318f565b925050819055506001600360008473ffffffffffffffffffffffffffffffffffffffff1673ffffffffffffffffffffffffffffffffffffffff168152602001908152602001600020600082825461187b9190613108565b92505081905550816002600083815260200190815260200160002060006101000a81548173ffffffffffffffffffffffffffffffffffffffff021916908373ffffffffffffffffffffffffffffffffffffffff160217905550808273ffffffffffffffffffffffffffffffffffffffff168473ffffffffffffffffffffffffffffffffffffffff167fddf252ad1be2c89b69c2b068fc378daa952ba7f163c4a11628f55a4df523b3ef60405160405180910390a4505050565b61193f8484846116d8565b61194b84848484611cb9565b61198a576040517f08c379a000000000000000000000000000000000000000000000000000000000815260040161198190612d99565b60405180910390fd5b50505050565b606060405180602001604052806000815250905090565b60606119b2826114cd565b6119f1576040517f08c379a00000000000000000000000000000000000000000000000000000000081526004016119e890612f99565b60405180910390fd5b60006119fb611990565b90506000815111611a1b5760405180602001604052806000815250611a46565b80611a2584611e50565b604051602001611a36929190612cd1565b6040516020818303038152906040525b915050919050565b6001816000016000828254019250508190555050565b600081600001549050919050565b600073ffffffffffffffffffffffffffffffffffffffff168273ffffffffffffffffffffffffffffffffffffffff161415611ae2576040517f08c379a0000000000000000000000000000000000000000000000000000000008152600401611ad990612ef9565b60405180910390fd5b611aeb816114cd565b15611b2b576040517f08c379a0000000000000000000000000000000000000000000000000000000008152600401611b2290612dd9565b60405180910390fd5b611b3760008383611cb4565b6001600360008473ffffffffffffffffffffffffffffffffffffffff1673ffffffffffffffffffffffffffffffffffffffff1681526020019081526020016000206000828254611b879190613108565b92505081905550816002600083815260200190815260200160002060006101000a81548173ffffffffffffffffffffffffffffffffffffffff021916908373ffffffffffffffffffffffffffffffffffffffff160217905550808273ffffffffffffffffffffffffffffffffffffffff16600073ffffffffffffffffffffffffffffffffffffffff167fddf252ad1be2c89b69c2b068fc378daa952ba7f163c4a11628f55a4df523b3ef60405160405180910390a45050565b611c49826114cd565b611c88576040517f08c379a0000000000000000000000000000000000000000000000000000000008152600401611c7f90612ed9565b60405180910390fd5b80600660008481526020019081526020016000209080519060200190611caf929190612010565b505050565b505050565b6000611cda8473ffffffffffffffffffffffffffffffffffffffff16611ffd565b15611e43578373ffffffffffffffffffffffffffffffffffffffff1663150b7a02611d03611539565b8786866040518563ffffffff1660e01b8152600401611d259493929190612d10565b602060405180830381600087803b158015611d3f57600080fd5b505af1925050508015611d7057506040513d601f19601f82011682018060405250810190611d6d91906123bc565b60015b611df3573d8060008114611da0576040519150601f19603f3d011682016040523d82523d6000602084013e611da5565b606091505b50600081511415611deb576040517f08c379a0000000000000000000000000000000000000000000000000000000008152600401611de290612d99565b60405180910390fd5b805181602001fd5b63150b7a0260e01b7bffffffffffffffffffffffffffffffffffffffffffffffffffffffff1916817bffffffffffffffffffffffffffffffffffffffffffffffffffffffff191614915050611e48565b600190505b949350505050565b60606000821415611e98576040518060400160405280600181526020017f30000000000000000000000000000000000000000000000000000000000000008152509050611ff8565b600082905060005b60008214611eca578080611eb3906132ab565b915050600a82611ec3919061315e565b9150611ea0565b60008167ffffffffffffffff811115611f0c577f4e487b7100000000000000000000000000000000000000000000000000000000600052604160045260246000fd5b6040519080825280601f01601f191660200182016040528015611f3e5781602001600182028036833780820191505090505b5090505b60008514611ff157600182611f57919061318f565b9150600a85611f6691906132f4565b6030611f729190613108565b60f81b818381518110611fae577f4e487b7100000000000000000000000000000000000000000000000000000000600052603260045260246000fd5b60200101907effffffffffffffffffffffffffffffffffffffffffffffffffffffffffffff1916908160001a905350600a85611fea919061315e565b9450611f42565b8093505050505b919050565b600080823b905060008111915050919050565b82805461201c90613279565b90600052602060002090601f01602090048101928261203e5760008555612085565b82601f1061205757805160ff1916838001178555612085565b82800160010185558215612085579182015b82811115612084578251825591602001919060010190612069565b5b5090506120929190612096565b5090565b5b808211156120af576000816000905550600101612097565b5090565b60006120c66120c184613065565b613034565b9050828152602081018484840111156120de57600080fd5b6120e9848285613237565b509392505050565b60006121046120ff84613095565b613034565b90508281526020810184848401111561211c57600080fd5b612127848285613237565b509392505050565b60008135905061213e816133f2565b92915050565b60008135905061215381613409565b92915050565b60008135905061216881613420565b92915050565b60008151905061217d81613420565b92915050565b600082601f83011261219457600080fd5b81356121a48482602086016120b3565b91505092915050565b600082601f8301126121be57600080fd5b81356121ce8482602086016120f1565b91505092915050565b6000813590506121e681613437565b92915050565b6000602082840312156121fe57600080fd5b600061220c8482850161212f565b91505092915050565b6000806040838503121561222857600080fd5b60006122368582860161212f565b92505060206122478582860161212f565b9150509250929050565b60008060006060848603121561226657600080fd5b60006122748682870161212f565b93505060206122858682870161212f565b9250506040612296868287016121d7565b9150509250925092565b600080600080608085870312156122b657600080fd5b60006122c48782880161212f565b94505060206122d58782880161212f565b93505060406122e6878288016121d7565b925050606085013567ffffffffffffffff81111561230357600080fd5b61230f87828801612183565b91505092959194509250565b6000806040838503121561232e57600080fd5b600061233c8582860161212f565b925050602061234d85828601612144565b9150509250929050565b6000806040838503121561236a57600080fd5b60006123788582860161212f565b9250506020612389858286016121d7565b9150509250929050565b6000602082840312156123a557600080fd5b60006123b384828501612159565b91505092915050565b6000602082840312156123ce57600080fd5b60006123dc8482850161216e565b91505092915050565b6000602082840312156123f757600080fd5b600082013567ffffffffffffffff81111561241157600080fd5b61241d848285016121ad565b91505092915050565b60006020828403121561243857600080fd5b6000612446848285016121d7565b91505092915050565b6000806040838503121561246257600080fd5b6000612470858286016121d7565b92505060206124818582860161212f565b9150509250929050565b6000806040838503121561249e57600080fd5b60006124ac858286016121d7565b92505060206124bd858286016121d7565b9150509250929050565b6124d0816131c3565b82525050565b6124df816131d5565b82525050565b60006124f0826130c5565b6124fa81856130db565b935061250a818560208601613246565b612513816133e1565b840191505092915050565b6000612529826130d0565b61253381856130ec565b9350612543818560208601613246565b61254c816133e1565b840191505092915050565b6000612562826130d0565b61256c81856130fd565b935061257c818560208601613246565b80840191505092915050565b60006125956032836130ec565b91507f4552433732313a207472616e7366657220746f206e6f6e20455243373231526560008301527f63656976657220696d706c656d656e74657200000000000000000000000000006020830152604082019050919050565b60006125fb6026836130ec565b91507f4f776e61626c653a206e6577206f776e657220697320746865207a65726f206160008301527f64647265737300000000000000000000000000000000000000000000000000006020830152604082019050919050565b6000612661601c836130ec565b91507f4552433732313a20746f6b656e20616c7265616479206d696e746564000000006000830152602082019050919050565b60006126a16024836130ec565b91507f4552433732313a207472616e7366657220746f20746865207a65726f2061646460008301527f72657373000000000000000000000000000000000000000000000000000000006020830152604082019050919050565b60006127076019836130ec565b91507f4552433732313a20617070726f766520746f2063616c6c6572000000000000006000830152602082019050919050565b6000612747602c836130ec565b91507f4552433732313a206f70657261746f7220717565727920666f72206e6f6e657860008301527f697374656e7420746f6b656e00000000000000000000000000000000000000006020830152604082019050919050565b60006127ad6023836130ec565b91507f4d75737420626520746f6b656e20686f6c64657220746f206164642072656c6560008301527f61736500000000000000000000000000000000000000000000000000000000006020830152604082019050919050565b60006128136038836130ec565b91507f4552433732313a20617070726f76652063616c6c6572206973206e6f74206f7760008301527f6e6572206e6f7220617070726f76656420666f7220616c6c00000000000000006020830152604082019050919050565b6000612879602a836130ec565b91507f4552433732313a2062616c616e636520717565727920666f7220746865207a6560008301527f726f2061646472657373000000000000000000000000000000000000000000006020830152604082019050919050565b60006128df6029836130ec565b91507f4552433732313a206f776e657220717565727920666f72206e6f6e657869737460008301527f656e7420746f6b656e00000000000000000000000000000000000000000000006020830152604082019050919050565b6000612945602e836130ec565b91507f45524337323155524953746f726167653a2055524920736574206f66206e6f6e60008301527f6578697374656e7420746f6b656e0000000000000000000000000000000000006020830152604082019050919050565b60006129ab6020836130ec565b91507f4552433732313a206d696e7420746f20746865207a65726f20616464726573736000830152602082019050919050565b60006129eb6031836130ec565b91507f45524337323155524953746f726167653a2055524920717565727920666f722060008301527f6e6f6e6578697374656e7420746f6b656e0000000000000000000000000000006020830152604082019050919050565b6000612a51602c836130ec565b91507f4552433732313a20617070726f76656420717565727920666f72206e6f6e657860008301527f697374656e7420746f6b656e00000000000000000000000000000000000000006020830152604082019050919050565b6000612ab76020836130ec565b91507f4f776e61626c653a2063616c6c6572206973206e6f7420746865206f776e65726000830152602082019050919050565b6000612af76029836130ec565b91507f4552433732313a207472616e73666572206f6620746f6b656e2074686174206960008301527f73206e6f74206f776e00000000000000000000000000000000000000000000006020830152604082019050919050565b6000612b5d602f836130ec565b91507f4552433732314d657461646174613a2055524920717565727920666f72206e6f60008301527f6e6578697374656e7420746f6b656e00000000000000000000000000000000006020830152604082019050919050565b6000612bc36021836130ec565b91507f4552433732313a20617070726f76616c20746f2063757272656e74206f776e6560008301527f72000000000000000000000000000000000000000000000000000000000000006020830152604082019050919050565b6000612c296031836130ec565b91507f4552433732313a207472616e736665722063616c6c6572206973206e6f74206f60008301527f776e6572206e6f7220617070726f7665640000000000000000000000000000006020830152604082019050919050565b6000612c8f6011836130ec565b91507f4d696e74206665652072657175697265640000000000000000000000000000006000830152602082019050919050565b612ccb8161322d565b82525050565b6000612cdd8285612557565b9150612ce98284612557565b91508190509392505050565b6000602082019050612d0a60008301846124c7565b92915050565b6000608082019050612d2560008301876124c7565b612d3260208301866124c7565b612d3f6040830185612cc2565b8181036060830152612d5181846124e5565b905095945050505050565b6000602082019050612d7160008301846124d6565b92915050565b60006020820190508181036000830152612d91818461251e565b905092915050565b60006020820190508181036000830152612db281612588565b9050919050565b60006020820190508181036000830152612dd2816125ee565b9050919050565b60006020820190508181036000830152612df281612654565b9050919050565b60006020820190508181036000830152612e1281612694565b9050919050565b60006020820190508181036000830152612e32816126fa565b9050919050565b60006020820190508181036000830152612e528161273a565b9050919050565b60006020820190508181036000830152612e72816127a0565b9050919050565b60006020820190508181036000830152612e9281612806565b9050919050565b60006020820190508181036000830152612eb28161286c565b9050919050565b60006020820190508181036000830152612ed2816128d2565b9050919050565b60006020820190508181036000830152612ef281612938565b9050919050565b60006020820190508181036000830152612f128161299e565b9050919050565b60006020820190508181036000830152612f32816129de565b9050919050565b60006020820190508181036000830152612f5281612a44565b9050919050565b60006020820190508181036000830152612f7281612aaa565b9050919050565b60006020820190508181036000830152612f9281612aea565b9050919050565b60006020820190508181036000830152612fb281612b50565b9050919050565b60006020820190508181036000830152612fd281612bb6565b9050919050565b60006020820190508181036000830152612ff281612c1c565b9050919050565b6000602082019050818103600083015261301281612c82565b9050919050565b600060208201905061302e6000830184612cc2565b92915050565b6000604051905081810181811067ffffffffffffffff8211171561305b5761305a6133b2565b5b8060405250919050565b600067ffffffffffffffff8211156130805761307f6133b2565b5b601f19601f8301169050602081019050919050565b600067ffffffffffffffff8211156130b0576130af6133b2565b5b601f19601f8301169050602081019050919050565b600081519050919050565b600081519050919050565b600082825260208201905092915050565b600082825260208201905092915050565b600081905092915050565b60006131138261322d565b915061311e8361322d565b9250827fffffffffffffffffffffffffffffffffffffffffffffffffffffffffffffffff0382111561315357613152613325565b5b828201905092915050565b60006131698261322d565b91506131748361322d565b92508261318457613183613354565b5b828204905092915050565b600061319a8261322d565b91506131a58361322d565b9250828210156131b8576131b7613325565b5b828203905092915050565b60006131ce8261320d565b9050919050565b60008115159050919050565b60007fffffffff0000000000000000000000000000000000000000000000000000000082169050919050565b600073ffffffffffffffffffffffffffffffffffffffff82169050919050565b6000819050919050565b82818337600083830152505050565b60005b83811015613264578082015181840152602081019050613249565b83811115613273576000848401525b50505050565b6000600282049050600182168061329157607f821691505b602082108114156132a5576132a4613383565b5b50919050565b60006132b68261322d565b91507fffffffffffffffffffffffffffffffffffffffffffffffffffffffffffffffff8214156132e9576132e8613325565b5b600182019050919050565b60006132ff8261322d565b915061330a8361322d565b92508261331a57613319613354565b5b828206905092915050565b7f4e487b7100000000000000000000000000000000000000000000000000000000600052601160045260246000fd5b7f4e487b7100000000000000000000000000000000000000000000000000000000600052601260045260246000fd5b7f4e487b7100000000000000000000000000000000000000000000000000000000600052602260045260246000fd5b7f4e487b7100000000000000000000000000000000000000000000000000000000600052604160045260246000fd5b6000601f19601f8301169050919050565b6133fb816131c3565b811461340657600080fd5b50565b613412816131d5565b811461341d57600080fd5b50565b613429816131e1565b811461343457600080fd5b50565b6134408161322d565b811461344b57600080fd5b5056fea26469706673582212204e0ee465eb14cf24a9b54ab25363e776207e7d4117de0074838c43c2dfe4838c64736f6c63430008000033",
  "linkReferences": {},
  "deployedLinkReferences": {}
}