{
  "_format": "hh-sol-artifact-1",
  "contractName": "ReleaseToken",
  "sourceName": "@royalt/contracts/src/v0.0/ReleaseToken.sol",
  "abi": [
    {
      "inputs": [],
      "stateMutability": "nonpayable",
      "type": "constructor"
    },
    {
      "anonymous": false,
      "inputs": [
        {
          "indexed": true,
          "internalType": "address",
          "name": "owner",
          "type": "address"
        },
        {
          "indexed": true,
          "internalType": "address",
          "name": "approved",
          "type": "address"
        },
        {
          "indexed": true,
          "internalType": "uint256",
          "name": "tokenId",
          "type": "uint256"
        }
      ],
      "name": "Approval",
      "type": "event"
    },
    {
      "anonymous": false,
      "inputs": [
        {
          "indexed": true,
          "internalType": "address",
          "name": "owner",
          "type": "address"
        },
        {
          "indexed": true,
          "internalType": "address",
          "name": "operator",
          "type": "address"
        },
        {
          "indexed": false,
          "internalType": "bool",
          "name": "approved",
          "type": "bool"
        }
      ],
      "name": "ApprovalForAll",
      "type": "event"
    },
    {
      "anonymous": false,
      "inputs": [
        {
          "indexed": true,
          "internalType": "address",
          "name": "previousOwner",
          "type": "address"
        },
        {
          "indexed": true,
          "internalType": "address",
          "name": "newOwner",
          "type": "address"
        }
      ],
      "name": "OwnershipTransferred",
      "type": "event"
    },
    {
      "anonymous": false,
      "inputs": [
        {
          "indexed": true,
          "internalType": "address",
          "name": "from",
          "type": "address"
        },
        {
          "indexed": true,
          "internalType": "address",
          "name": "to",
          "type": "address"
        },
        {
          "indexed": true,
          "internalType": "uint256",
          "name": "tokenId",
          "type": "uint256"
        }
      ],
      "name": "Transfer",
      "type": "event"
    },
    {
      "inputs": [
        {
          "internalType": "address",
          "name": "to",
          "type": "address"
        },
        {
          "internalType": "uint256",
          "name": "tokenId",
          "type": "uint256"
        }
      ],
      "name": "approve",
      "outputs": [],
      "stateMutability": "nonpayable",
      "type": "function"
    },
    {
      "inputs": [
        {
          "internalType": "address",
          "name": "owner",
          "type": "address"
        }
      ],
      "name": "balanceOf",
      "outputs": [
        {
          "internalType": "uint256",
          "name": "",
          "type": "uint256"
        }
      ],
      "stateMutability": "view",
      "type": "function"
    },
    {
      "inputs": [
        {
          "internalType": "uint256",
          "name": "",
          "type": "uint256"
        }
      ],
      "name": "forSale",
      "outputs": [
        {
          "internalType": "bool",
          "name": "",
          "type": "bool"
        }
      ],
      "stateMutability": "view",
      "type": "function"
    },
    {
      "inputs": [
        {
          "internalType": "uint256",
          "name": "tokenId",
          "type": "uint256"
        }
      ],
      "name": "getApproved",
      "outputs": [
        {
          "internalType": "address",
          "name": "",
          "type": "address"
        }
      ],
      "stateMutability": "view",
      "type": "function"
    },
    {
      "inputs": [
        {
          "internalType": "address",
          "name": "owner",
          "type": "address"
        },
        {
          "internalType": "address",
          "name": "operator",
          "type": "address"
        }
      ],
      "name": "isApprovedForAll",
      "outputs": [
        {
          "internalType": "bool",
          "name": "",
          "type": "bool"
        }
      ],
      "stateMutability": "view",
      "type": "function"
    },
    {
      "inputs": [
        {
          "internalType": "string",
          "name": "_tokenURI",
          "type": "string"
        }
      ],
      "name": "mint",
      "outputs": [
        {
          "internalType": "bool",
          "name": "",
          "type": "bool"
        }
      ],
      "stateMutability": "nonpayable",
      "type": "function"
    },
    {
      "inputs": [],
      "name": "name",
      "outputs": [
        {
          "internalType": "string",
          "name": "",
          "type": "string"
        }
      ],
      "stateMutability": "view",
      "type": "function"
    },
    {
      "inputs": [],
      "name": "originToken",
      "outputs": [
        {
          "internalType": "address",
          "name": "",
          "type": "address"
        }
      ],
      "stateMutability": "view",
      "type": "function"
    },
    {
      "inputs": [],
      "name": "owner",
      "outputs": [
        {
          "internalType": "address",
          "name": "",
          "type": "address"
        }
      ],
      "stateMutability": "view",
      "type": "function"
    },
    {
      "inputs": [
        {
          "internalType": "uint256",
          "name": "tokenId",
          "type": "uint256"
        }
      ],
      "name": "ownerOf",
      "outputs": [
        {
          "internalType": "address",
          "name": "",
          "type": "address"
        }
      ],
      "stateMutability": "view",
      "type": "function"
    },
    {
      "inputs": [
        {
          "internalType": "uint256",
          "name": "",
          "type": "uint256"
        }
      ],
      "name": "price",
      "outputs": [
        {
          "internalType": "uint256",
          "name": "",
          "type": "uint256"
        }
      ],
      "stateMutability": "view",
      "type": "function"
    },
    {
      "inputs": [
        {
          "internalType": "uint256",
          "name": "_tokenId",
          "type": "uint256"
        }
      ],
      "name": "purchase",
      "outputs": [],
      "stateMutability": "payable",
      "type": "function"
    },
    {
      "inputs": [],
      "name": "renounceOwnership",
      "outputs": [],
      "stateMutability": "nonpayable",
      "type": "function"
    },
    {
      "inputs": [
        {
          "internalType": "address",
          "name": "from",
          "type": "address"
        },
        {
          "internalType": "address",
          "name": "to",
          "type": "address"
        },
        {
          "internalType": "uint256",
          "name": "tokenId",
          "type": "uint256"
        }
      ],
      "name": "safeTransferFrom",
      "outputs": [],
      "stateMutability": "nonpayable",
      "type": "function"
    },
    {
      "inputs": [
        {
          "internalType": "address",
          "name": "from",
          "type": "address"
        },
        {
          "internalType": "address",
          "name": "to",
          "type": "address"
        },
        {
          "internalType": "uint256",
          "name": "tokenId",
          "type": "uint256"
        },
        {
          "internalType": "bytes",
          "name": "_data",
          "type": "bytes"
        }
      ],
      "name": "safeTransferFrom",
      "outputs": [],
      "stateMutability": "nonpayable",
      "type": "function"
    },
    {
      "inputs": [
        {
          "internalType": "address",
          "name": "operator",
          "type": "address"
        },
        {
          "internalType": "bool",
          "name": "approved",
          "type": "bool"
        }
      ],
      "name": "setApprovalForAll",
      "outputs": [],
      "stateMutability": "nonpayable",
      "type": "function"
    },
    {
      "inputs": [
        {
          "internalType": "bool",
          "name": "_forSale",
          "type": "bool"
        },
        {
          "internalType": "uint256",
          "name": "_tokenId",
          "type": "uint256"
        }
      ],
      "name": "setForSale",
      "outputs": [],
      "stateMutability": "nonpayable",
      "type": "function"
    },
    {
      "inputs": [
        {
          "internalType": "address",
          "name": "_originToken",
          "type": "address"
        }
      ],
      "name": "setOriginToken",
      "outputs": [],
      "stateMutability": "nonpayable",
      "type": "function"
    },
    {
      "inputs": [
        {
          "internalType": "uint256",
          "name": "_price",
          "type": "uint256"
        },
        {
          "internalType": "uint256",
          "name": "_tokenId",
          "type": "uint256"
        }
      ],
      "name": "setPrice",
      "outputs": [],
      "stateMutability": "nonpayable",
      "type": "function"
    },
    {
      "inputs": [
        {
          "internalType": "bytes4",
          "name": "interfaceId",
          "type": "bytes4"
        }
      ],
      "name": "supportsInterface",
      "outputs": [
        {
          "internalType": "bool",
          "name": "",
          "type": "bool"
        }
      ],
      "stateMutability": "view",
      "type": "function"
    },
    {
      "inputs": [],
      "name": "symbol",
      "outputs": [
        {
          "internalType": "string",
          "name": "",
          "type": "string"
        }
      ],
      "stateMutability": "view",
      "type": "function"
    },
    {
      "inputs": [
        {
          "internalType": "uint256",
          "name": "tokenId",
          "type": "uint256"
        }
      ],
      "name": "tokenURI",
      "outputs": [
        {
          "internalType": "string",
          "name": "",
          "type": "string"
        }
      ],
      "stateMutability": "view",
      "type": "function"
    },
    {
      "inputs": [
        {
          "internalType": "address",
          "name": "from",
          "type": "address"
        },
        {
          "internalType": "address",
          "name": "to",
          "type": "address"
        },
        {
          "internalType": "uint256",
          "name": "tokenId",
          "type": "uint256"
        }
      ],
      "name": "transferFrom",
      "outputs": [],
      "stateMutability": "nonpayable",
      "type": "function"
    },
    {
      "inputs": [
        {
          "internalType": "address",
          "name": "newOwner",
          "type": "address"
        }
      ],
      "name": "transferOwnership",
      "outputs": [],
      "stateMutability": "nonpayable",
      "type": "function"
    }
  ],
  "bytecode": "0x60806040523480156200001157600080fd5b506040518060400160405280600c81526020017f52656c65617365546f6b656e00000000000000000000000000000000000000008152506040518060400160405280600481526020017f524c53540000000000000000000000000000000000000000000000000000000081525081600090805190602001906200009692919062000171565b508060019080519060200190620000af92919062000171565b5050506000620000c46200016960201b60201c565b905080600760006101000a81548173ffffffffffffffffffffffffffffffffffffffff021916908373ffffffffffffffffffffffffffffffffffffffff1602179055508073ffffffffffffffffffffffffffffffffffffffff16600073ffffffffffffffffffffffffffffffffffffffff167f8be0079c531659141344cd1fd0a4f28419497f9722a3daafe3b4186f6b6457e060405160405180910390a35062000286565b600033905090565b8280546200017f9062000221565b90600052602060002090601f016020900481019282620001a35760008555620001ef565b82601f10620001be57805160ff1916838001178555620001ef565b82800160010185558215620001ef579182015b82811115620001ee578251825591602001919060010190620001d1565b5b509050620001fe919062000202565b5090565b5b808211156200021d57600081600090555060010162000203565b5090565b600060028204905060018216806200023a57607f821691505b6020821081141562000251576200025062000257565b5b50919050565b7f4e487b7100000000000000000000000000000000000000000000000000000000600052602260045260246000fd5b6137ea80620002966000396000f3fe60806040526004361061014b5760003560e01c806371c535dd116100b6578063d85d3d271161006f578063d85d3d27146104b4578063dda8f217146104f1578063e985e9c51461051a578063efef39a114610557578063f2fde38b14610573578063f7d975771461059c5761014b565b806371c535dd146103a65780638da5cb5b146103cf57806395d89b41146103fa578063a22cb46514610425578063b88d4fde1461044e578063c87b56dd146104775761014b565b806326a49e371161010857806326a49e37146102725780632831f2f4146102af57806342842e0e146102ec5780636352211e1461031557806370a0823114610352578063715018a61461038f5761014b565b806301ffc9a71461015057806306fdde031461018d578063081812fc146101b8578063095ea7b3146101f557806313096a411461021e57806323b872dd14610249575b600080fd5b34801561015c57600080fd5b506101776004803603810190610172919061263b565b6105c5565b6040516101849190613062565b60405180910390f35b34801561019957600080fd5b506101a26106a7565b6040516101af919061307d565b60405180910390f35b3480156101c457600080fd5b506101df60048036038101906101da91906126ce565b610739565b6040516101ec9190612ffb565b60405180910390f35b34801561020157600080fd5b5061021c600480360381019061021791906125c3565b6107be565b005b34801561022a57600080fd5b506102336108d6565b6040516102409190612ffb565b60405180910390f35b34801561025557600080fd5b50610270600480360381019061026b91906124bd565b6108fc565b005b34801561027e57600080fd5b50610299600480360381019061029491906126ce565b61095c565b6040516102a6919061337f565b60405180910390f35b3480156102bb57600080fd5b506102d660048036038101906102d191906126ce565b610974565b6040516102e39190613062565b60405180910390f35b3480156102f857600080fd5b50610313600480360381019061030e91906124bd565b610994565b005b34801561032157600080fd5b5061033c600480360381019061033791906126ce565b6109b4565b6040516103499190612ffb565b60405180910390f35b34801561035e57600080fd5b5061037960048036038101906103749190612458565b610a66565b604051610386919061337f565b60405180910390f35b34801561039b57600080fd5b506103a4610b1e565b005b3480156103b257600080fd5b506103cd60048036038101906103c89190612458565b610c5b565b005b3480156103db57600080fd5b506103e4610d1b565b6040516103f19190612ffb565b60405180910390f35b34801561040657600080fd5b5061040f610d45565b60405161041c919061307d565b60405180910390f35b34801561043157600080fd5b5061044c60048036038101906104479190612587565b610dd7565b005b34801561045a57600080fd5b506104756004803603810190610470919061250c565b610f58565b005b34801561048357600080fd5b5061049e600480360381019061049991906126ce565b610fba565b6040516104ab919061307d565b60405180910390f35b3480156104c057600080fd5b506104db60048036038101906104d6919061268d565b61110c565b6040516104e89190613062565b60405180910390f35b3480156104fd57600080fd5b50610518600480360381019061051391906125ff565b611272565b005b34801561052657600080fd5b50610541600480360381019061053c9190612481565b6112ea565b60405161054e9190613062565b60405180910390f35b610571600480360381019061056c91906126ce565b61137e565b005b34801561057f57600080fd5b5061059a60048036038101906105959190612458565b6114be565b005b3480156105a857600080fd5b506105c360048036038101906105be91906126f7565b61166a565b005b60007f80ac58cd000000000000000000000000000000000000000000000000000000007bffffffffffffffffffffffffffffffffffffffffffffffffffffffff1916827bffffffffffffffffffffffffffffffffffffffffffffffffffffffff1916148061069057507f5b5e139f000000000000000000000000000000000000000000000000000000007bffffffffffffffffffffffffffffffffffffffffffffffffffffffff1916827bffffffffffffffffffffffffffffffffffffffffffffffffffffffff1916145b806106a0575061069f826116cf565b5b9050919050565b6060600080546106b6906135df565b80601f01602080910402602001604051908101604052809291908181526020018280546106e2906135df565b801561072f5780601f106107045761010080835404028352916020019161072f565b820191906000526020600020905b81548152906001019060200180831161071257829003601f168201915b5050505050905090565b600061074482611739565b610783576040517f08c379a000000000000000000000000000000000000000000000000000000000815260040161077a9061329f565b60405180910390fd5b6004600083815260200190815260200160002060009054906101000a900473ffffffffffffffffffffffffffffffffffffffff169050919050565b60006107c9826109b4565b90508073ffffffffffffffffffffffffffffffffffffffff168373ffffffffffffffffffffffffffffffffffffffff16141561083a576040517f08c379a00000000000000000000000000000000000000000000000000000000081526004016108319061333f565b60405180910390fd5b8073ffffffffffffffffffffffffffffffffffffffff166108596117a5565b73ffffffffffffffffffffffffffffffffffffffff1614806108885750610887816108826117a5565b6112ea565b5b6108c7576040517f08c379a00000000000000000000000000000000000000000000000000000000081526004016108be906131bf565b60405180910390fd5b6108d183836117ad565b505050565b600960009054906101000a900473ffffffffffffffffffffffffffffffffffffffff1681565b61090d6109076117a5565b82611866565b61094c576040517f08c379a00000000000000000000000000000000000000000000000000000000081526004016109439061335f565b60405180910390fd5b610957838383611944565b505050565b600b6020528060005260406000206000915090505481565b600a6020528060005260406000206000915054906101000a900460ff1681565b6109af83838360405180602001604052806000815250610f58565b505050565b6000806002600084815260200190815260200160002060009054906101000a900473ffffffffffffffffffffffffffffffffffffffff169050600073ffffffffffffffffffffffffffffffffffffffff168173ffffffffffffffffffffffffffffffffffffffff161415610a5d576040517f08c379a0000000000000000000000000000000000000000000000000000000008152600401610a54906131ff565b60405180910390fd5b80915050919050565b60008073ffffffffffffffffffffffffffffffffffffffff168273ffffffffffffffffffffffffffffffffffffffff161415610ad7576040517f08c379a0000000000000000000000000000000000000000000000000000000008152600401610ace906131df565b60405180910390fd5b600360008373ffffffffffffffffffffffffffffffffffffffff1673ffffffffffffffffffffffffffffffffffffffff168152602001908152602001600020549050919050565b610b266117a5565b73ffffffffffffffffffffffffffffffffffffffff16610b44610d1b565b73ffffffffffffffffffffffffffffffffffffffff1614610b9a576040517f08c379a0000000000000000000000000000000000000000000000000000000008152600401610b91906132bf565b60405180910390fd5b600073ffffffffffffffffffffffffffffffffffffffff16600760009054906101000a900473ffffffffffffffffffffffffffffffffffffffff1673ffffffffffffffffffffffffffffffffffffffff167f8be0079c531659141344cd1fd0a4f28419497f9722a3daafe3b4186f6b6457e060405160405180910390a36000600760006101000a81548173ffffffffffffffffffffffffffffffffffffffff021916908373ffffffffffffffffffffffffffffffffffffffff160217905550565b610c636117a5565b73ffffffffffffffffffffffffffffffffffffffff16610c81610d1b565b73ffffffffffffffffffffffffffffffffffffffff1614610cd7576040517f08c379a0000000000000000000000000000000000000000000000000000000008152600401610cce906132bf565b60405180910390fd5b80600960006101000a81548173ffffffffffffffffffffffffffffffffffffffff021916908373ffffffffffffffffffffffffffffffffffffffff16021790555050565b6000600760009054906101000a900473ffffffffffffffffffffffffffffffffffffffff16905090565b606060018054610d54906135df565b80601f0160208091040260200160405190810160405280929190818152602001828054610d80906135df565b8015610dcd5780601f10610da257610100808354040283529160200191610dcd565b820191906000526020600020905b815481529060010190602001808311610db057829003601f168201915b5050505050905090565b610ddf6117a5565b73ffffffffffffffffffffffffffffffffffffffff168273ffffffffffffffffffffffffffffffffffffffff161415610e4d576040517f08c379a0000000000000000000000000000000000000000000000000000000008152600401610e449061311f565b60405180910390fd5b8060056000610e5a6117a5565b73ffffffffffffffffffffffffffffffffffffffff1673ffffffffffffffffffffffffffffffffffffffff16815260200190815260200160002060008473ffffffffffffffffffffffffffffffffffffffff1673ffffffffffffffffffffffffffffffffffffffff16815260200190815260200160002060006101000a81548160ff0219169083151502179055508173ffffffffffffffffffffffffffffffffffffffff16610f076117a5565b73ffffffffffffffffffffffffffffffffffffffff167f17307eab39ab6107e8899845ad3d59bd9653f200f220920489ca2b5937696c3183604051610f4c9190613062565b60405180910390a35050565b610f69610f636117a5565b83611866565b610fa8576040517f08c379a0000000000000000000000000000000000000000000000000000000008152600401610f9f9061335f565b60405180910390fd5b610fb484848484611ba0565b50505050565b6060610fc582611739565b611004576040517f08c379a0000000000000000000000000000000000000000000000000000000008152600401610ffb9061327f565b60405180910390fd5b6000600660008481526020019081526020016000208054611024906135df565b80601f0160208091040260200160405190810160405280929190818152602001828054611050906135df565b801561109d5780601f106110725761010080835404028352916020019161109d565b820191906000526020600020905b81548152906001019060200180831161108057829003601f168201915b5050505050905060006110ae611bfc565b90506000815114156110c4578192505050611107565b6000825111156110f95780826040516020016110e1929190612fd7565b60405160208183030381529060405292505050611107565b61110284611c13565b925050505b919050565b60006111166117a5565b73ffffffffffffffffffffffffffffffffffffffff16611134610d1b565b73ffffffffffffffffffffffffffffffffffffffff161461118a576040517f08c379a0000000000000000000000000000000000000000000000000000000008152600401611181906132bf565b60405180910390fd5b600960009054906101000a900473ffffffffffffffffffffffffffffffffffffffff1673ffffffffffffffffffffffffffffffffffffffff163373ffffffffffffffffffffffffffffffffffffffff161461121a576040517f08c379a00000000000000000000000000000000000000000000000000000000081526004016112119061319f565b60405180910390fd5b6112246008611cba565b60006112306008611cd0565b905061125e600960009054906101000a900473ffffffffffffffffffffffffffffffffffffffff1682611cde565b6112688184611eac565b6001915050919050565b61127c3382611866565b6112bb576040517f08c379a00000000000000000000000000000000000000000000000000000000081526004016112b29061331f565b60405180910390fd5b81600a600083815260200190815260200160002060006101000a81548160ff0219169083151502179055505050565b6000600560008473ffffffffffffffffffffffffffffffffffffffff1673ffffffffffffffffffffffffffffffffffffffff16815260200190815260200160002060008373ffffffffffffffffffffffffffffffffffffffff1673ffffffffffffffffffffffffffffffffffffffff16815260200190815260200160002060009054906101000a900460ff16905092915050565b61138781611739565b6113c6576040517f08c379a00000000000000000000000000000000000000000000000000000000081526004016113bd9061313f565b60405180910390fd5b600a600082815260200190815260200160002060009054906101000a900460ff16611426576040517f08c379a000000000000000000000000000000000000000000000000000000000815260040161141d9061323f565b60405180910390fd5b600b60008281526020019081526020016000205434101561147c576040517f08c379a00000000000000000000000000000000000000000000000000000000081526004016114739061315f565b60405180910390fd5b6000600a600083815260200190815260200160002060006101000a81548160ff0219169083151502179055506114bb6114b4826109b4565b3383611944565b50565b6114c66117a5565b73ffffffffffffffffffffffffffffffffffffffff166114e4610d1b565b73ffffffffffffffffffffffffffffffffffffffff161461153a576040517f08c379a0000000000000000000000000000000000000000000000000000000008152600401611531906132bf565b60405180910390fd5b600073ffffffffffffffffffffffffffffffffffffffff168173ffffffffffffffffffffffffffffffffffffffff1614156115aa576040517f08c379a00000000000000000000000000000000000000000000000000000000081526004016115a1906130bf565b60405180910390fd5b8073ffffffffffffffffffffffffffffffffffffffff16600760009054906101000a900473ffffffffffffffffffffffffffffffffffffffff1673ffffffffffffffffffffffffffffffffffffffff167f8be0079c531659141344cd1fd0a4f28419497f9722a3daafe3b4186f6b6457e060405160405180910390a380600760006101000a81548173ffffffffffffffffffffffffffffffffffffffff021916908373ffffffffffffffffffffffffffffffffffffffff16021790555050565b6116743382611866565b6116b3576040517f08c379a00000000000000000000000000000000000000000000000000000000081526004016116aa9061331f565b60405180910390fd5b81600b6000838152602001908152602001600020819055505050565b60007f01ffc9a7000000000000000000000000000000000000000000000000000000007bffffffffffffffffffffffffffffffffffffffffffffffffffffffff1916827bffffffffffffffffffffffffffffffffffffffffffffffffffffffff1916149050919050565b60008073ffffffffffffffffffffffffffffffffffffffff166002600084815260200190815260200160002060009054906101000a900473ffffffffffffffffffffffffffffffffffffffff1673ffffffffffffffffffffffffffffffffffffffff1614159050919050565b600033905090565b816004600083815260200190815260200160002060006101000a81548173ffffffffffffffffffffffffffffffffffffffff021916908373ffffffffffffffffffffffffffffffffffffffff160217905550808273ffffffffffffffffffffffffffffffffffffffff16611820836109b4565b73ffffffffffffffffffffffffffffffffffffffff167f8c5be1e5ebec7d5bd14f71427d1e84f3dd0314c0f7b2291e5b200ac8c7c3b92560405160405180910390a45050565b600061187182611739565b6118b0576040517f08c379a00000000000000000000000000000000000000000000000000000000081526004016118a79061317f565b60405180910390fd5b60006118bb836109b4565b90508073ffffffffffffffffffffffffffffffffffffffff168473ffffffffffffffffffffffffffffffffffffffff16148061192a57508373ffffffffffffffffffffffffffffffffffffffff1661191284610739565b73ffffffffffffffffffffffffffffffffffffffff16145b8061193b575061193a81856112ea565b5b91505092915050565b8273ffffffffffffffffffffffffffffffffffffffff16611964826109b4565b73ffffffffffffffffffffffffffffffffffffffff16146119ba576040517f08c379a00000000000000000000000000000000000000000000000000000000081526004016119b1906132df565b60405180910390fd5b600073ffffffffffffffffffffffffffffffffffffffff168273ffffffffffffffffffffffffffffffffffffffff161415611a2a576040517f08c379a0000000000000000000000000000000000000000000000000000000008152600401611a21906130ff565b60405180910390fd5b611a35838383611f20565b611a406000826117ad565b6001600360008573ffffffffffffffffffffffffffffffffffffffff1673ffffffffffffffffffffffffffffffffffffffff1681526020019081526020016000206000828254611a9091906134f5565b925050819055506001600360008473ffffffffffffffffffffffffffffffffffffffff1673ffffffffffffffffffffffffffffffffffffffff1681526020019081526020016000206000828254611ae7919061346e565b92505081905550816002600083815260200190815260200160002060006101000a81548173ffffffffffffffffffffffffffffffffffffffff021916908373ffffffffffffffffffffffffffffffffffffffff160217905550808273ffffffffffffffffffffffffffffffffffffffff168473ffffffffffffffffffffffffffffffffffffffff167fddf252ad1be2c89b69c2b068fc378daa952ba7f163c4a11628f55a4df523b3ef60405160405180910390a4505050565b611bab848484611944565b611bb784848484611f25565b611bf6576040517f08c379a0000000000000000000000000000000000000000000000000000000008152600401611bed9061309f565b60405180910390fd5b50505050565b606060405180602001604052806000815250905090565b6060611c1e82611739565b611c5d576040517f08c379a0000000000000000000000000000000000000000000000000000000008152600401611c54906132ff565b60405180910390fd5b6000611c67611bfc565b90506000815111611c875760405180602001604052806000815250611cb2565b80611c91846120bc565b604051602001611ca2929190612fd7565b6040516020818303038152906040525b915050919050565b6001816000016000828254019250508190555050565b600081600001549050919050565b600073ffffffffffffffffffffffffffffffffffffffff168273ffffffffffffffffffffffffffffffffffffffff161415611d4e576040517f08c379a0000000000000000000000000000000000000000000000000000000008152600401611d459061325f565b60405180910390fd5b611d5781611739565b15611d97576040517f08c379a0000000000000000000000000000000000000000000000000000000008152600401611d8e906130df565b60405180910390fd5b611da360008383611f20565b6001600360008473ffffffffffffffffffffffffffffffffffffffff1673ffffffffffffffffffffffffffffffffffffffff1681526020019081526020016000206000828254611df3919061346e565b92505081905550816002600083815260200190815260200160002060006101000a81548173ffffffffffffffffffffffffffffffffffffffff021916908373ffffffffffffffffffffffffffffffffffffffff160217905550808273ffffffffffffffffffffffffffffffffffffffff16600073ffffffffffffffffffffffffffffffffffffffff167fddf252ad1be2c89b69c2b068fc378daa952ba7f163c4a11628f55a4df523b3ef60405160405180910390a45050565b611eb582611739565b611ef4576040517f08c379a0000000000000000000000000000000000000000000000000000000008152600401611eeb9061321f565b60405180910390fd5b80600660008481526020019081526020016000209080519060200190611f1b92919061227c565b505050565b505050565b6000611f468473ffffffffffffffffffffffffffffffffffffffff16612269565b156120af578373ffffffffffffffffffffffffffffffffffffffff1663150b7a02611f6f6117a5565b8786866040518563ffffffff1660e01b8152600401611f919493929190613016565b602060405180830381600087803b158015611fab57600080fd5b505af1925050508015611fdc57506040513d601f19601f82011682018060405250810190611fd99190612664565b60015b61205f573d806000811461200c576040519150601f19603f3d011682016040523d82523d6000602084013e612011565b606091505b50600081511415612057576040517f08c379a000000000000000000000000000000000000000000000000000000000815260040161204e9061309f565b60405180910390fd5b805181602001fd5b63150b7a0260e01b7bffffffffffffffffffffffffffffffffffffffffffffffffffffffff1916817bffffffffffffffffffffffffffffffffffffffffffffffffffffffff1916149150506120b4565b600190505b949350505050565b60606000821415612104576040518060400160405280600181526020017f30000000000000000000000000000000000000000000000000000000000000008152509050612264565b600082905060005b6000821461213657808061211f90613611565b915050600a8261212f91906134c4565b915061210c565b60008167ffffffffffffffff811115612178577f4e487b7100000000000000000000000000000000000000000000000000000000600052604160045260246000fd5b6040519080825280601f01601f1916602001820160405280156121aa5781602001600182028036833780820191505090505b5090505b6000851461225d576001826121c391906134f5565b9150600a856121d2919061365a565b60306121de919061346e565b60f81b81838151811061221a577f4e487b7100000000000000000000000000000000000000000000000000000000600052603260045260246000fd5b60200101907effffffffffffffffffffffffffffffffffffffffffffffffffffffffffffff1916908160001a905350600a8561225691906134c4565b94506121ae565b8093505050505b919050565b600080823b905060008111915050919050565b828054612288906135df565b90600052602060002090601f0160209004810192826122aa57600085556122f1565b82601f106122c357805160ff19168380011785556122f1565b828001600101855582156122f1579182015b828111156122f05782518255916020019190600101906122d5565b5b5090506122fe9190612302565b5090565b5b8082111561231b576000816000905550600101612303565b5090565b600061233261232d846133cb565b61339a565b90508281526020810184848401111561234a57600080fd5b61235584828561359d565b509392505050565b600061237061236b846133fb565b61339a565b90508281526020810184848401111561238857600080fd5b61239384828561359d565b509392505050565b6000813590506123aa81613758565b92915050565b6000813590506123bf8161376f565b92915050565b6000813590506123d481613786565b92915050565b6000815190506123e981613786565b92915050565b600082601f83011261240057600080fd5b813561241084826020860161231f565b91505092915050565b600082601f83011261242a57600080fd5b813561243a84826020860161235d565b91505092915050565b6000813590506124528161379d565b92915050565b60006020828403121561246a57600080fd5b60006124788482850161239b565b91505092915050565b6000806040838503121561249457600080fd5b60006124a28582860161239b565b92505060206124b38582860161239b565b9150509250929050565b6000806000606084860312156124d257600080fd5b60006124e08682870161239b565b93505060206124f18682870161239b565b925050604061250286828701612443565b9150509250925092565b6000806000806080858703121561252257600080fd5b60006125308782880161239b565b94505060206125418782880161239b565b935050604061255287828801612443565b925050606085013567ffffffffffffffff81111561256f57600080fd5b61257b878288016123ef565b91505092959194509250565b6000806040838503121561259a57600080fd5b60006125a88582860161239b565b92505060206125b9858286016123b0565b9150509250929050565b600080604083850312156125d657600080fd5b60006125e48582860161239b565b92505060206125f585828601612443565b9150509250929050565b6000806040838503121561261257600080fd5b6000612620858286016123b0565b925050602061263185828601612443565b9150509250929050565b60006020828403121561264d57600080fd5b600061265b848285016123c5565b91505092915050565b60006020828403121561267657600080fd5b6000612684848285016123da565b91505092915050565b60006020828403121561269f57600080fd5b600082013567ffffffffffffffff8111156126b957600080fd5b6126c584828501612419565b91505092915050565b6000602082840312156126e057600080fd5b60006126ee84828501612443565b91505092915050565b6000806040838503121561270a57600080fd5b600061271885828601612443565b925050602061272985828601612443565b9150509250929050565b61273c81613529565b82525050565b61274b8161353b565b82525050565b600061275c8261342b565b6127668185613441565b93506127768185602086016135ac565b61277f81613747565b840191505092915050565b600061279582613436565b61279f8185613452565b93506127af8185602086016135ac565b6127b881613747565b840191505092915050565b60006127ce82613436565b6127d88185613463565b93506127e88185602086016135ac565b80840191505092915050565b6000612801603283613452565b91507f4552433732313a207472616e7366657220746f206e6f6e20455243373231526560008301527f63656976657220696d706c656d656e74657200000000000000000000000000006020830152604082019050919050565b6000612867602683613452565b91507f4f776e61626c653a206e6577206f776e657220697320746865207a65726f206160008301527f64647265737300000000000000000000000000000000000000000000000000006020830152604082019050919050565b60006128cd601c83613452565b91507f4552433732313a20746f6b656e20616c7265616479206d696e746564000000006000830152602082019050919050565b600061290d602483613452565b91507f4552433732313a207472616e7366657220746f20746865207a65726f2061646460008301527f72657373000000000000000000000000000000000000000000000000000000006020830152604082019050919050565b6000612973601983613452565b91507f4552433732313a20617070726f766520746f2063616c6c6572000000000000006000830152602082019050919050565b60006129b3601483613452565b91507f546f6b656e20646f6573206e6f742065786973740000000000000000000000006000830152602082019050919050565b60006129f3601383613452565b91507f546f6b656e207072696365206e6f74206d6574000000000000000000000000006000830152602082019050919050565b6000612a33602c83613452565b91507f4552433732313a206f70657261746f7220717565727920666f72206e6f6e657860008301527f697374656e7420746f6b656e00000000000000000000000000000000000000006020830152604082019050919050565b6000612a99601683613452565b91507f4e6f7420617574686f72697a656420746f206d696e74000000000000000000006000830152602082019050919050565b6000612ad9603883613452565b91507f4552433732313a20617070726f76652063616c6c6572206973206e6f74206f7760008301527f6e6572206e6f7220617070726f76656420666f7220616c6c00000000000000006020830152604082019050919050565b6000612b3f602a83613452565b91507f4552433732313a2062616c616e636520717565727920666f7220746865207a6560008301527f726f2061646472657373000000000000000000000000000000000000000000006020830152604082019050919050565b6000612ba5602983613452565b91507f4552433732313a206f776e657220717565727920666f72206e6f6e657869737460008301527f656e7420746f6b656e00000000000000000000000000000000000000000000006020830152604082019050919050565b6000612c0b602e83613452565b91507f45524337323155524953746f726167653a2055524920736574206f66206e6f6e60008301527f6578697374656e7420746f6b656e0000000000000000000000000000000000006020830152604082019050919050565b6000612c71601283613452565b91507f546f6b656e206e6f7420666f722073616c6500000000000000000000000000006000830152602082019050919050565b6000612cb1602083613452565b91507f4552433732313a206d696e7420746f20746865207a65726f20616464726573736000830152602082019050919050565b6000612cf1603183613452565b91507f45524337323155524953746f726167653a2055524920717565727920666f722060008301527f6e6f6e6578697374656e7420746f6b656e0000000000000000000000000000006020830152604082019050919050565b6000612d57602c83613452565b91507f4552433732313a20617070726f76656420717565727920666f72206e6f6e657860008301527f697374656e7420746f6b656e00000000000000000000000000000000000000006020830152604082019050919050565b6000612dbd602083613452565b91507f4f776e61626c653a2063616c6c6572206973206e6f7420746865206f776e65726000830152602082019050919050565b6000612dfd602983613452565b91507f4552433732313a207472616e73666572206f6620746f6b656e2074686174206960008301527f73206e6f74206f776e00000000000000000000000000000000000000000000006020830152604082019050919050565b6000612e63602f83613452565b91507f4552433732314d657461646174613a2055524920717565727920666f72206e6f60008301527f6e6578697374656e7420746f6b656e00000000000000000000000000000000006020830152604082019050919050565b6000612ec9601583613452565b91507f4e6f7420617070726f766564206f72206f776e657200000000000000000000006000830152602082019050919050565b6000612f09602183613452565b91507f4552433732313a20617070726f76616c20746f2063757272656e74206f776e6560008301527f72000000000000000000000000000000000000000000000000000000000000006020830152604082019050919050565b6000612f6f603183613452565b91507f4552433732313a207472616e736665722063616c6c6572206973206e6f74206f60008301527f776e6572206e6f7220617070726f7665640000000000000000000000000000006020830152604082019050919050565b612fd181613593565b82525050565b6000612fe382856127c3565b9150612fef82846127c3565b91508190509392505050565b60006020820190506130106000830184612733565b92915050565b600060808201905061302b6000830187612733565b6130386020830186612733565b6130456040830185612fc8565b81810360608301526130578184612751565b905095945050505050565b60006020820190506130776000830184612742565b92915050565b60006020820190508181036000830152613097818461278a565b905092915050565b600060208201905081810360008301526130b8816127f4565b9050919050565b600060208201905081810360008301526130d88161285a565b9050919050565b600060208201905081810360008301526130f8816128c0565b9050919050565b6000602082019050818103600083015261311881612900565b9050919050565b6000602082019050818103600083015261313881612966565b9050919050565b60006020820190508181036000830152613158816129a6565b9050919050565b60006020820190508181036000830152613178816129e6565b9050919050565b6000602082019050818103600083015261319881612a26565b9050919050565b600060208201905081810360008301526131b881612a8c565b9050919050565b600060208201905081810360008301526131d881612acc565b9050919050565b600060208201905081810360008301526131f881612b32565b9050919050565b6000602082019050818103600083015261321881612b98565b9050919050565b6000602082019050818103600083015261323881612bfe565b9050919050565b6000602082019050818103600083015261325881612c64565b9050919050565b6000602082019050818103600083015261327881612ca4565b9050919050565b6000602082019050818103600083015261329881612ce4565b9050919050565b600060208201905081810360008301526132b881612d4a565b9050919050565b600060208201905081810360008301526132d881612db0565b9050919050565b600060208201905081810360008301526132f881612df0565b9050919050565b6000602082019050818103600083015261331881612e56565b9050919050565b6000602082019050818103600083015261333881612ebc565b9050919050565b6000602082019050818103600083015261335881612efc565b9050919050565b6000602082019050818103600083015261337881612f62565b9050919050565b60006020820190506133946000830184612fc8565b92915050565b6000604051905081810181811067ffffffffffffffff821117156133c1576133c0613718565b5b8060405250919050565b600067ffffffffffffffff8211156133e6576133e5613718565b5b601f19601f8301169050602081019050919050565b600067ffffffffffffffff82111561341657613415613718565b5b601f19601f8301169050602081019050919050565b600081519050919050565b600081519050919050565b600082825260208201905092915050565b600082825260208201905092915050565b600081905092915050565b600061347982613593565b915061348483613593565b9250827fffffffffffffffffffffffffffffffffffffffffffffffffffffffffffffffff038211156134b9576134b861368b565b5b828201905092915050565b60006134cf82613593565b91506134da83613593565b9250826134ea576134e96136ba565b5b828204905092915050565b600061350082613593565b915061350b83613593565b92508282101561351e5761351d61368b565b5b828203905092915050565b600061353482613573565b9050919050565b60008115159050919050565b60007fffffffff0000000000000000000000000000000000000000000000000000000082169050919050565b600073ffffffffffffffffffffffffffffffffffffffff82169050919050565b6000819050919050565b82818337600083830152505050565b60005b838110156135ca5780820151818401526020810190506135af565b838111156135d9576000848401525b50505050565b600060028204905060018216806135f757607f821691505b6020821081141561360b5761360a6136e9565b5b50919050565b600061361c82613593565b91507fffffffffffffffffffffffffffffffffffffffffffffffffffffffffffffffff82141561364f5761364e61368b565b5b600182019050919050565b600061366582613593565b915061367083613593565b9250826136805761367f6136ba565b5b828206905092915050565b7f4e487b7100000000000000000000000000000000000000000000000000000000600052601160045260246000fd5b7f4e487b7100000000000000000000000000000000000000000000000000000000600052601260045260246000fd5b7f4e487b7100000000000000000000000000000000000000000000000000000000600052602260045260246000fd5b7f4e487b7100000000000000000000000000000000000000000000000000000000600052604160045260246000fd5b6000601f19601f8301169050919050565b61376181613529565b811461376c57600080fd5b50565b6137788161353b565b811461378357600080fd5b50565b61378f81613547565b811461379a57600080fd5b50565b6137a681613593565b81146137b157600080fd5b5056fea2646970667358221220352ee979ee9b1eeedd7c4be8815b3333c50f63edfdb8418e4f55accfc7d5760864736f6c63430008000033",
  "linkReferences": {},
  "deployedLinkReferences": {}
}