{
  "_format": "hh-sol-artifact-1",
  "contractName": "RoyaltyToken",
  "sourceName": "@royalt/contracts/src/v0.0/RoyaltyToken.sol",
  "abi": [
    {
      "inputs": [],
      "stateMutability": "nonpayable",
      "type": "constructor"
    },
    {
      "anonymous": false,
      "inputs": [
        {
          "indexed": true,
          "internalType": "address",
          "name": "owner",
          "type": "address"
        },
        {
          "indexed": true,
          "internalType": "address",
          "name": "approved",
          "type": "address"
        },
        {
          "indexed": true,
          "internalType": "uint256",
          "name": "tokenId",
          "type": "uint256"
        }
      ],
      "name": "Approval",
      "type": "event"
    },
    {
      "anonymous": false,
      "inputs": [
        {
          "indexed": true,
          "internalType": "address",
          "name": "owner",
          "type": "address"
        },
        {
          "indexed": true,
          "internalType": "address",
          "name": "operator",
          "type": "address"
        },
        {
          "indexed": false,
          "internalType": "bool",
          "name": "approved",
          "type": "bool"
        }
      ],
      "name": "ApprovalForAll",
      "type": "event"
    },
    {
      "anonymous": false,
      "inputs": [
        {
          "indexed": true,
          "internalType": "address",
          "name": "previousOwner",
          "type": "address"
        },
        {
          "indexed": true,
          "internalType": "address",
          "name": "newOwner",
          "type": "address"
        }
      ],
      "name": "OwnershipTransferred",
      "type": "event"
    },
    {
      "anonymous": false,
      "inputs": [
        {
          "indexed": true,
          "internalType": "address",
          "name": "from",
          "type": "address"
        },
        {
          "indexed": true,
          "internalType": "address",
          "name": "to",
          "type": "address"
        },
        {
          "indexed": true,
          "internalType": "uint256",
          "name": "tokenId",
          "type": "uint256"
        }
      ],
      "name": "Transfer",
      "type": "event"
    },
    {
      "inputs": [
        {
          "internalType": "address",
          "name": "to",
          "type": "address"
        },
        {
          "internalType": "uint256",
          "name": "tokenId",
          "type": "uint256"
        }
      ],
      "name": "approve",
      "outputs": [],
      "stateMutability": "nonpayable",
      "type": "function"
    },
    {
      "inputs": [
        {
          "internalType": "address",
          "name": "owner",
          "type": "address"
        }
      ],
      "name": "balanceOf",
      "outputs": [
        {
          "internalType": "uint256",
          "name": "",
          "type": "uint256"
        }
      ],
      "stateMutability": "view",
      "type": "function"
    },
    {
      "inputs": [
        {
          "internalType": "uint256",
          "name": "",
          "type": "uint256"
        }
      ],
      "name": "forSale",
      "outputs": [
        {
          "internalType": "bool",
          "name": "",
          "type": "bool"
        }
      ],
      "stateMutability": "view",
      "type": "function"
    },
    {
      "inputs": [
        {
          "internalType": "uint256",
          "name": "tokenId",
          "type": "uint256"
        }
      ],
      "name": "getApproved",
      "outputs": [
        {
          "internalType": "address",
          "name": "",
          "type": "address"
        }
      ],
      "stateMutability": "view",
      "type": "function"
    },
    {
      "inputs": [
        {
          "internalType": "address",
          "name": "owner",
          "type": "address"
        },
        {
          "internalType": "address",
          "name": "operator",
          "type": "address"
        }
      ],
      "name": "isApprovedForAll",
      "outputs": [
        {
          "internalType": "bool",
          "name": "",
          "type": "bool"
        }
      ],
      "stateMutability": "view",
      "type": "function"
    },
    {
      "inputs": [
        {
          "internalType": "string",
          "name": "_tokenURI",
          "type": "string"
        },
        {
          "internalType": "uint256",
          "name": "_originId",
          "type": "uint256"
        }
      ],
      "name": "mint",
      "outputs": [
        {
          "internalType": "bool",
          "name": "",
          "type": "bool"
        }
      ],
      "stateMutability": "nonpayable",
      "type": "function"
    },
    {
      "inputs": [],
      "name": "name",
      "outputs": [
        {
          "internalType": "string",
          "name": "",
          "type": "string"
        }
      ],
      "stateMutability": "view",
      "type": "function"
    },
    {
      "inputs": [
        {
          "internalType": "uint256",
          "name": "",
          "type": "uint256"
        }
      ],
      "name": "originId",
      "outputs": [
        {
          "internalType": "uint256",
          "name": "",
          "type": "uint256"
        }
      ],
      "stateMutability": "view",
      "type": "function"
    },
    {
      "inputs": [],
      "name": "originToken",
      "outputs": [
        {
          "internalType": "address",
          "name": "",
          "type": "address"
        }
      ],
      "stateMutability": "view",
      "type": "function"
    },
    {
      "inputs": [],
      "name": "owner",
      "outputs": [
        {
          "internalType": "address",
          "name": "",
          "type": "address"
        }
      ],
      "stateMutability": "view",
      "type": "function"
    },
    {
      "inputs": [
        {
          "internalType": "uint256",
          "name": "tokenId",
          "type": "uint256"
        }
      ],
      "name": "ownerOf",
      "outputs": [
        {
          "internalType": "address",
          "name": "",
          "type": "address"
        }
      ],
      "stateMutability": "view",
      "type": "function"
    },
    {
      "inputs": [
        {
          "internalType": "uint256",
          "name": "",
          "type": "uint256"
        }
      ],
      "name": "price",
      "outputs": [
        {
          "internalType": "uint256",
          "name": "",
          "type": "uint256"
        }
      ],
      "stateMutability": "view",
      "type": "function"
    },
    {
      "inputs": [
        {
          "internalType": "uint256",
          "name": "_tokenId",
          "type": "uint256"
        }
      ],
      "name": "purchase",
      "outputs": [],
      "stateMutability": "payable",
      "type": "function"
    },
    {
      "inputs": [],
      "name": "renounceOwnership",
      "outputs": [],
      "stateMutability": "nonpayable",
      "type": "function"
    },
    {
      "inputs": [
        {
          "internalType": "address",
          "name": "from",
          "type": "address"
        },
        {
          "internalType": "address",
          "name": "to",
          "type": "address"
        },
        {
          "internalType": "uint256",
          "name": "tokenId",
          "type": "uint256"
        }
      ],
      "name": "safeTransferFrom",
      "outputs": [],
      "stateMutability": "nonpayable",
      "type": "function"
    },
    {
      "inputs": [
        {
          "internalType": "address",
          "name": "from",
          "type": "address"
        },
        {
          "internalType": "address",
          "name": "to",
          "type": "address"
        },
        {
          "internalType": "uint256",
          "name": "tokenId",
          "type": "uint256"
        },
        {
          "internalType": "bytes",
          "name": "_data",
          "type": "bytes"
        }
      ],
      "name": "safeTransferFrom",
      "outputs": [],
      "stateMutability": "nonpayable",
      "type": "function"
    },
    {
      "inputs": [
        {
          "internalType": "address",
          "name": "operator",
          "type": "address"
        },
        {
          "internalType": "bool",
          "name": "approved",
          "type": "bool"
        }
      ],
      "name": "setApprovalForAll",
      "outputs": [],
      "stateMutability": "nonpayable",
      "type": "function"
    },
    {
      "inputs": [
        {
          "internalType": "bool",
          "name": "_forSale",
          "type": "bool"
        },
        {
          "internalType": "uint256",
          "name": "_tokenId",
          "type": "uint256"
        }
      ],
      "name": "setForSale",
      "outputs": [],
      "stateMutability": "nonpayable",
      "type": "function"
    },
    {
      "inputs": [
        {
          "internalType": "address",
          "name": "_originToken",
          "type": "address"
        }
      ],
      "name": "setOriginToken",
      "outputs": [],
      "stateMutability": "nonpayable",
      "type": "function"
    },
    {
      "inputs": [
        {
          "internalType": "uint256",
          "name": "_price",
          "type": "uint256"
        },
        {
          "internalType": "uint256",
          "name": "_tokenId",
          "type": "uint256"
        }
      ],
      "name": "setPrice",
      "outputs": [],
      "stateMutability": "nonpayable",
      "type": "function"
    },
    {
      "inputs": [
        {
          "internalType": "bytes4",
          "name": "interfaceId",
          "type": "bytes4"
        }
      ],
      "name": "supportsInterface",
      "outputs": [
        {
          "internalType": "bool",
          "name": "",
          "type": "bool"
        }
      ],
      "stateMutability": "view",
      "type": "function"
    },
    {
      "inputs": [],
      "name": "symbol",
      "outputs": [
        {
          "internalType": "string",
          "name": "",
          "type": "string"
        }
      ],
      "stateMutability": "view",
      "type": "function"
    },
    {
      "inputs": [
        {
          "internalType": "uint256",
          "name": "tokenId",
          "type": "uint256"
        }
      ],
      "name": "tokenURI",
      "outputs": [
        {
          "internalType": "string",
          "name": "",
          "type": "string"
        }
      ],
      "stateMutability": "view",
      "type": "function"
    },
    {
      "inputs": [
        {
          "internalType": "address",
          "name": "from",
          "type": "address"
        },
        {
          "internalType": "address",
          "name": "to",
          "type": "address"
        },
        {
          "internalType": "uint256",
          "name": "tokenId",
          "type": "uint256"
        }
      ],
      "name": "transferFrom",
      "outputs": [],
      "stateMutability": "nonpayable",
      "type": "function"
    },
    {
      "inputs": [
        {
          "internalType": "address",
          "name": "newOwner",
          "type": "address"
        }
      ],
      "name": "transferOwnership",
      "outputs": [],
      "stateMutability": "nonpayable",
      "type": "function"
    }
  ],
  "bytecode": "0x60806040523480156200001157600080fd5b506040518060400160405280600d81526020017f526f79616c747920546f6b656e000000000000000000000000000000000000008152506040518060400160405280600481526020017f52594c540000000000000000000000000000000000000000000000000000000081525081600090805190602001906200009692919062000171565b508060019080519060200190620000af92919062000171565b5050506000620000c46200016960201b60201c565b905080600760006101000a81548173ffffffffffffffffffffffffffffffffffffffff021916908373ffffffffffffffffffffffffffffffffffffffff1602179055508073ffffffffffffffffffffffffffffffffffffffff16600073ffffffffffffffffffffffffffffffffffffffff167f8be0079c531659141344cd1fd0a4f28419497f9722a3daafe3b4186f6b6457e060405160405180910390a35062000286565b600033905090565b8280546200017f9062000221565b90600052602060002090601f016020900481019282620001a35760008555620001ef565b82601f10620001be57805160ff1916838001178555620001ef565b82800160010185558215620001ef579182015b82811115620001ee578251825591602001919060010190620001d1565b5b509050620001fe919062000202565b5090565b5b808211156200021d57600081600090555060010162000203565b5090565b600060028204905060018216806200023a57607f821691505b6020821081141562000251576200025062000257565b5b50919050565b7f4e487b7100000000000000000000000000000000000000000000000000000000600052602260045260246000fd5b61380a80620002966000396000f3fe6080604052600436106101665760003560e01c8063715018a6116100d1578063c87b56dd1161008a578063e985e9c511610064578063e985e9c514610572578063efef39a1146105af578063f2fde38b146105cb578063f7d97577146105f457610166565b8063c87b56dd146104cf578063dda8f2171461050c578063e1a008d21461053557610166565b8063715018a6146103e757806371c535dd146103fe5780638da5cb5b1461042757806395d89b4114610452578063a22cb4651461047d578063b88d4fde146104a657610166565b806323b872dd1161012357806323b872dd146102a157806326a49e37146102ca5780632831f2f41461030757806342842e0e146103445780636352211e1461036d57806370a08231146103aa57610166565b806301ffc9a71461016b578063056b01ce146101a857806306fdde03146101e5578063081812fc14610210578063095ea7b31461024d57806313096a4114610276575b600080fd5b34801561017757600080fd5b50610192600480360381019061018d9190612648565b61061d565b60405161019f9190613082565b60405180910390f35b3480156101b457600080fd5b506101cf60048036038101906101ca919061269a565b6106ff565b6040516101dc9190613082565b60405180910390f35b3480156101f157600080fd5b506101fa610802565b604051610207919061309d565b60405180910390f35b34801561021c57600080fd5b50610237600480360381019061023291906126ee565b610894565b604051610244919061301b565b60405180910390f35b34801561025957600080fd5b50610274600480360381019061026f91906125d0565b610919565b005b34801561028257600080fd5b5061028b610a31565b604051610298919061301b565b60405180910390f35b3480156102ad57600080fd5b506102c860048036038101906102c391906124ca565b610a57565b005b3480156102d657600080fd5b506102f160048036038101906102ec91906126ee565b610ab7565b6040516102fe919061339f565b60405180910390f35b34801561031357600080fd5b5061032e600480360381019061032991906126ee565b610acf565b60405161033b9190613082565b60405180910390f35b34801561035057600080fd5b5061036b600480360381019061036691906124ca565b610aef565b005b34801561037957600080fd5b50610394600480360381019061038f91906126ee565b610b0f565b6040516103a1919061301b565b60405180910390f35b3480156103b657600080fd5b506103d160048036038101906103cc9190612465565b610bc1565b6040516103de919061339f565b60405180910390f35b3480156103f357600080fd5b506103fc610c79565b005b34801561040a57600080fd5b5061042560048036038101906104209190612465565b610db6565b005b34801561043357600080fd5b5061043c610e76565b604051610449919061301b565b60405180910390f35b34801561045e57600080fd5b50610467610ea0565b604051610474919061309d565b60405180910390f35b34801561048957600080fd5b506104a4600480360381019061049f9190612594565b610f32565b005b3480156104b257600080fd5b506104cd60048036038101906104c89190612519565b6110b3565b005b3480156104db57600080fd5b506104f660048036038101906104f191906126ee565b611115565b604051610503919061309d565b60405180910390f35b34801561051857600080fd5b50610533600480360381019061052e919061260c565b611267565b005b34801561054157600080fd5b5061055c600480360381019061055791906126ee565b6112df565b604051610569919061339f565b60405180910390f35b34801561057e57600080fd5b506105996004803603810190610594919061248e565b6112f7565b6040516105a69190613082565b60405180910390f35b6105c960048036038101906105c491906126ee565b61138b565b005b3480156105d757600080fd5b506105f260048036038101906105ed9190612465565b6114cb565b005b34801561060057600080fd5b5061061b60048036038101906106169190612717565b611677565b005b60007f80ac58cd000000000000000000000000000000000000000000000000000000007bffffffffffffffffffffffffffffffffffffffffffffffffffffffff1916827bffffffffffffffffffffffffffffffffffffffffffffffffffffffff191614806106e857507f5b5e139f000000000000000000000000000000000000000000000000000000007bffffffffffffffffffffffffffffffffffffffffffffffffffffffff1916827bffffffffffffffffffffffffffffffffffffffffffffffffffffffff1916145b806106f857506106f7826116dc565b5b9050919050565b6000600960009054906101000a900473ffffffffffffffffffffffffffffffffffffffff1673ffffffffffffffffffffffffffffffffffffffff163373ffffffffffffffffffffffffffffffffffffffff1614610791576040517f08c379a0000000000000000000000000000000000000000000000000000000008152600401610788906131bf565b60405180910390fd5b61079b6008611746565b60006107a7600861175c565b905082600a6000838152602001908152602001600020819055506107ed600960009054906101000a900473ffffffffffffffffffffffffffffffffffffffff168261176a565b6107f78185611938565b600191505092915050565b606060008054610811906135ff565b80601f016020809104026020016040519081016040528092919081815260200182805461083d906135ff565b801561088a5780601f1061085f5761010080835404028352916020019161088a565b820191906000526020600020905b81548152906001019060200180831161086d57829003601f168201915b5050505050905090565b600061089f826119ac565b6108de576040517f08c379a00000000000000000000000000000000000000000000000000000000081526004016108d5906132bf565b60405180910390fd5b6004600083815260200190815260200160002060009054906101000a900473ffffffffffffffffffffffffffffffffffffffff169050919050565b600061092482610b0f565b90508073ffffffffffffffffffffffffffffffffffffffff168373ffffffffffffffffffffffffffffffffffffffff161415610995576040517f08c379a000000000000000000000000000000000000000000000000000000000815260040161098c9061335f565b60405180910390fd5b8073ffffffffffffffffffffffffffffffffffffffff166109b4611a18565b73ffffffffffffffffffffffffffffffffffffffff1614806109e357506109e2816109dd611a18565b6112f7565b5b610a22576040517f08c379a0000000000000000000000000000000000000000000000000000000008152600401610a19906131df565b60405180910390fd5b610a2c8383611a20565b505050565b600960009054906101000a900473ffffffffffffffffffffffffffffffffffffffff1681565b610a68610a62611a18565b82611ad9565b610aa7576040517f08c379a0000000000000000000000000000000000000000000000000000000008152600401610a9e9061337f565b60405180910390fd5b610ab2838383611bb7565b505050565b600c6020528060005260406000206000915090505481565b600b6020528060005260406000206000915054906101000a900460ff1681565b610b0a838383604051806020016040528060008152506110b3565b505050565b6000806002600084815260200190815260200160002060009054906101000a900473ffffffffffffffffffffffffffffffffffffffff169050600073ffffffffffffffffffffffffffffffffffffffff168173ffffffffffffffffffffffffffffffffffffffff161415610bb8576040517f08c379a0000000000000000000000000000000000000000000000000000000008152600401610baf9061321f565b60405180910390fd5b80915050919050565b60008073ffffffffffffffffffffffffffffffffffffffff168273ffffffffffffffffffffffffffffffffffffffff161415610c32576040517f08c379a0000000000000000000000000000000000000000000000000000000008152600401610c29906131ff565b60405180910390fd5b600360008373ffffffffffffffffffffffffffffffffffffffff1673ffffffffffffffffffffffffffffffffffffffff168152602001908152602001600020549050919050565b610c81611a18565b73ffffffffffffffffffffffffffffffffffffffff16610c9f610e76565b73ffffffffffffffffffffffffffffffffffffffff1614610cf5576040517f08c379a0000000000000000000000000000000000000000000000000000000008152600401610cec906132df565b60405180910390fd5b600073ffffffffffffffffffffffffffffffffffffffff16600760009054906101000a900473ffffffffffffffffffffffffffffffffffffffff1673ffffffffffffffffffffffffffffffffffffffff167f8be0079c531659141344cd1fd0a4f28419497f9722a3daafe3b4186f6b6457e060405160405180910390a36000600760006101000a81548173ffffffffffffffffffffffffffffffffffffffff021916908373ffffffffffffffffffffffffffffffffffffffff160217905550565b610dbe611a18565b73ffffffffffffffffffffffffffffffffffffffff16610ddc610e76565b73ffffffffffffffffffffffffffffffffffffffff1614610e32576040517f08c379a0000000000000000000000000000000000000000000000000000000008152600401610e29906132df565b60405180910390fd5b80600960006101000a81548173ffffffffffffffffffffffffffffffffffffffff021916908373ffffffffffffffffffffffffffffffffffffffff16021790555050565b6000600760009054906101000a900473ffffffffffffffffffffffffffffffffffffffff16905090565b606060018054610eaf906135ff565b80601f0160208091040260200160405190810160405280929190818152602001828054610edb906135ff565b8015610f285780601f10610efd57610100808354040283529160200191610f28565b820191906000526020600020905b815481529060010190602001808311610f0b57829003601f168201915b5050505050905090565b610f3a611a18565b73ffffffffffffffffffffffffffffffffffffffff168273ffffffffffffffffffffffffffffffffffffffff161415610fa8576040517f08c379a0000000000000000000000000000000000000000000000000000000008152600401610f9f9061313f565b60405180910390fd5b8060056000610fb5611a18565b73ffffffffffffffffffffffffffffffffffffffff1673ffffffffffffffffffffffffffffffffffffffff16815260200190815260200160002060008473ffffffffffffffffffffffffffffffffffffffff1673ffffffffffffffffffffffffffffffffffffffff16815260200190815260200160002060006101000a81548160ff0219169083151502179055508173ffffffffffffffffffffffffffffffffffffffff16611062611a18565b73ffffffffffffffffffffffffffffffffffffffff167f17307eab39ab6107e8899845ad3d59bd9653f200f220920489ca2b5937696c31836040516110a79190613082565b60405180910390a35050565b6110c46110be611a18565b83611ad9565b611103576040517f08c379a00000000000000000000000000000000000000000000000000000000081526004016110fa9061337f565b60405180910390fd5b61110f84848484611e13565b50505050565b6060611120826119ac565b61115f576040517f08c379a00000000000000000000000000000000000000000000000000000000081526004016111569061329f565b60405180910390fd5b600060066000848152602001908152602001600020805461117f906135ff565b80601f01602080910402602001604051908101604052809291908181526020018280546111ab906135ff565b80156111f85780601f106111cd576101008083540402835291602001916111f8565b820191906000526020600020905b8154815290600101906020018083116111db57829003601f168201915b505050505090506000611209611e6f565b905060008151141561121f578192505050611262565b60008251111561125457808260405160200161123c929190612ff7565b60405160208183030381529060405292505050611262565b61125d84611e86565b925050505b919050565b6112713382611ad9565b6112b0576040517f08c379a00000000000000000000000000000000000000000000000000000000081526004016112a79061333f565b60405180910390fd5b81600b600083815260200190815260200160002060006101000a81548160ff0219169083151502179055505050565b600a6020528060005260406000206000915090505481565b6000600560008473ffffffffffffffffffffffffffffffffffffffff1673ffffffffffffffffffffffffffffffffffffffff16815260200190815260200160002060008373ffffffffffffffffffffffffffffffffffffffff1673ffffffffffffffffffffffffffffffffffffffff16815260200190815260200160002060009054906101000a900460ff16905092915050565b611394816119ac565b6113d3576040517f08c379a00000000000000000000000000000000000000000000000000000000081526004016113ca9061315f565b60405180910390fd5b600b600082815260200190815260200160002060009054906101000a900460ff16611433576040517f08c379a000000000000000000000000000000000000000000000000000000000815260040161142a9061325f565b60405180910390fd5b600c600082815260200190815260200160002054341015611489576040517f08c379a00000000000000000000000000000000000000000000000000000000081526004016114809061317f565b60405180910390fd5b6000600b600083815260200190815260200160002060006101000a81548160ff0219169083151502179055506114c86114c182610b0f565b3383611bb7565b50565b6114d3611a18565b73ffffffffffffffffffffffffffffffffffffffff166114f1610e76565b73ffffffffffffffffffffffffffffffffffffffff1614611547576040517f08c379a000000000000000000000000000000000000000000000000000000000815260040161153e906132df565b60405180910390fd5b600073ffffffffffffffffffffffffffffffffffffffff168173ffffffffffffffffffffffffffffffffffffffff1614156115b7576040517f08c379a00000000000000000000000000000000000000000000000000000000081526004016115ae906130df565b60405180910390fd5b8073ffffffffffffffffffffffffffffffffffffffff16600760009054906101000a900473ffffffffffffffffffffffffffffffffffffffff1673ffffffffffffffffffffffffffffffffffffffff167f8be0079c531659141344cd1fd0a4f28419497f9722a3daafe3b4186f6b6457e060405160405180910390a380600760006101000a81548173ffffffffffffffffffffffffffffffffffffffff021916908373ffffffffffffffffffffffffffffffffffffffff16021790555050565b6116813382611ad9565b6116c0576040517f08c379a00000000000000000000000000000000000000000000000000000000081526004016116b79061333f565b60405180910390fd5b81600c6000838152602001908152602001600020819055505050565b60007f01ffc9a7000000000000000000000000000000000000000000000000000000007bffffffffffffffffffffffffffffffffffffffffffffffffffffffff1916827bffffffffffffffffffffffffffffffffffffffffffffffffffffffff1916149050919050565b6001816000016000828254019250508190555050565b600081600001549050919050565b600073ffffffffffffffffffffffffffffffffffffffff168273ffffffffffffffffffffffffffffffffffffffff1614156117da576040517f08c379a00000000000000000000000000000000000000000000000000000000081526004016117d19061327f565b60405180910390fd5b6117e3816119ac565b15611823576040517f08c379a000000000000000000000000000000000000000000000000000000000815260040161181a906130ff565b60405180910390fd5b61182f60008383611f2d565b6001600360008473ffffffffffffffffffffffffffffffffffffffff1673ffffffffffffffffffffffffffffffffffffffff168152602001908152602001600020600082825461187f919061348e565b92505081905550816002600083815260200190815260200160002060006101000a81548173ffffffffffffffffffffffffffffffffffffffff021916908373ffffffffffffffffffffffffffffffffffffffff160217905550808273ffffffffffffffffffffffffffffffffffffffff16600073ffffffffffffffffffffffffffffffffffffffff167fddf252ad1be2c89b69c2b068fc378daa952ba7f163c4a11628f55a4df523b3ef60405160405180910390a45050565b611941826119ac565b611980576040517f08c379a00000000000000000000000000000000000000000000000000000000081526004016119779061323f565b60405180910390fd5b806006600084815260200190815260200160002090805190602001906119a7929190612289565b505050565b60008073ffffffffffffffffffffffffffffffffffffffff166002600084815260200190815260200160002060009054906101000a900473ffffffffffffffffffffffffffffffffffffffff1673ffffffffffffffffffffffffffffffffffffffff1614159050919050565b600033905090565b816004600083815260200190815260200160002060006101000a81548173ffffffffffffffffffffffffffffffffffffffff021916908373ffffffffffffffffffffffffffffffffffffffff160217905550808273ffffffffffffffffffffffffffffffffffffffff16611a9383610b0f565b73ffffffffffffffffffffffffffffffffffffffff167f8c5be1e5ebec7d5bd14f71427d1e84f3dd0314c0f7b2291e5b200ac8c7c3b92560405160405180910390a45050565b6000611ae4826119ac565b611b23576040517f08c379a0000000000000000000000000000000000000000000000000000000008152600401611b1a9061319f565b60405180910390fd5b6000611b2e83610b0f565b90508073ffffffffffffffffffffffffffffffffffffffff168473ffffffffffffffffffffffffffffffffffffffff161480611b9d57508373ffffffffffffffffffffffffffffffffffffffff16611b8584610894565b73ffffffffffffffffffffffffffffffffffffffff16145b80611bae5750611bad81856112f7565b5b91505092915050565b8273ffffffffffffffffffffffffffffffffffffffff16611bd782610b0f565b73ffffffffffffffffffffffffffffffffffffffff1614611c2d576040517f08c379a0000000000000000000000000000000000000000000000000000000008152600401611c24906132ff565b60405180910390fd5b600073ffffffffffffffffffffffffffffffffffffffff168273ffffffffffffffffffffffffffffffffffffffff161415611c9d576040517f08c379a0000000000000000000000000000000000000000000000000000000008152600401611c949061311f565b60405180910390fd5b611ca8838383611f2d565b611cb3600082611a20565b6001600360008573ffffffffffffffffffffffffffffffffffffffff1673ffffffffffffffffffffffffffffffffffffffff1681526020019081526020016000206000828254611d039190613515565b925050819055506001600360008473ffffffffffffffffffffffffffffffffffffffff1673ffffffffffffffffffffffffffffffffffffffff1681526020019081526020016000206000828254611d5a919061348e565b92505081905550816002600083815260200190815260200160002060006101000a81548173ffffffffffffffffffffffffffffffffffffffff021916908373ffffffffffffffffffffffffffffffffffffffff160217905550808273ffffffffffffffffffffffffffffffffffffffff168473ffffffffffffffffffffffffffffffffffffffff167fddf252ad1be2c89b69c2b068fc378daa952ba7f163c4a11628f55a4df523b3ef60405160405180910390a4505050565b611e1e848484611bb7565b611e2a84848484611f32565b611e69576040517f08c379a0000000000000000000000000000000000000000000000000000000008152600401611e60906130bf565b60405180910390fd5b50505050565b606060405180602001604052806000815250905090565b6060611e91826119ac565b611ed0576040517f08c379a0000000000000000000000000000000000000000000000000000000008152600401611ec79061331f565b60405180910390fd5b6000611eda611e6f565b90506000815111611efa5760405180602001604052806000815250611f25565b80611f04846120c9565b604051602001611f15929190612ff7565b6040516020818303038152906040525b915050919050565b505050565b6000611f538473ffffffffffffffffffffffffffffffffffffffff16612276565b156120bc578373ffffffffffffffffffffffffffffffffffffffff1663150b7a02611f7c611a18565b8786866040518563ffffffff1660e01b8152600401611f9e9493929190613036565b602060405180830381600087803b158015611fb857600080fd5b505af1925050508015611fe957506040513d601f19601f82011682018060405250810190611fe69190612671565b60015b61206c573d8060008114612019576040519150601f19603f3d011682016040523d82523d6000602084013e61201e565b606091505b50600081511415612064576040517f08c379a000000000000000000000000000000000000000000000000000000000815260040161205b906130bf565b60405180910390fd5b805181602001fd5b63150b7a0260e01b7bffffffffffffffffffffffffffffffffffffffffffffffffffffffff1916817bffffffffffffffffffffffffffffffffffffffffffffffffffffffff1916149150506120c1565b600190505b949350505050565b60606000821415612111576040518060400160405280600181526020017f30000000000000000000000000000000000000000000000000000000000000008152509050612271565b600082905060005b6000821461214357808061212c90613631565b915050600a8261213c91906134e4565b9150612119565b60008167ffffffffffffffff811115612185577f4e487b7100000000000000000000000000000000000000000000000000000000600052604160045260246000fd5b6040519080825280601f01601f1916602001820160405280156121b75781602001600182028036833780820191505090505b5090505b6000851461226a576001826121d09190613515565b9150600a856121df919061367a565b60306121eb919061348e565b60f81b818381518110612227577f4e487b7100000000000000000000000000000000000000000000000000000000600052603260045260246000fd5b60200101907effffffffffffffffffffffffffffffffffffffffffffffffffffffffffffff1916908160001a905350600a8561226391906134e4565b94506121bb565b8093505050505b919050565b600080823b905060008111915050919050565b828054612295906135ff565b90600052602060002090601f0160209004810192826122b757600085556122fe565b82601f106122d057805160ff19168380011785556122fe565b828001600101855582156122fe579182015b828111156122fd5782518255916020019190600101906122e2565b5b50905061230b919061230f565b5090565b5b80821115612328576000816000905550600101612310565b5090565b600061233f61233a846133eb565b6133ba565b90508281526020810184848401111561235757600080fd5b6123628482856135bd565b509392505050565b600061237d6123788461341b565b6133ba565b90508281526020810184848401111561239557600080fd5b6123a08482856135bd565b509392505050565b6000813590506123b781613778565b92915050565b6000813590506123cc8161378f565b92915050565b6000813590506123e1816137a6565b92915050565b6000815190506123f6816137a6565b92915050565b600082601f83011261240d57600080fd5b813561241d84826020860161232c565b91505092915050565b600082601f83011261243757600080fd5b813561244784826020860161236a565b91505092915050565b60008135905061245f816137bd565b92915050565b60006020828403121561247757600080fd5b6000612485848285016123a8565b91505092915050565b600080604083850312156124a157600080fd5b60006124af858286016123a8565b92505060206124c0858286016123a8565b9150509250929050565b6000806000606084860312156124df57600080fd5b60006124ed868287016123a8565b93505060206124fe868287016123a8565b925050604061250f86828701612450565b9150509250925092565b6000806000806080858703121561252f57600080fd5b600061253d878288016123a8565b945050602061254e878288016123a8565b935050604061255f87828801612450565b925050606085013567ffffffffffffffff81111561257c57600080fd5b612588878288016123fc565b91505092959194509250565b600080604083850312156125a757600080fd5b60006125b5858286016123a8565b92505060206125c6858286016123bd565b9150509250929050565b600080604083850312156125e357600080fd5b60006125f1858286016123a8565b925050602061260285828601612450565b9150509250929050565b6000806040838503121561261f57600080fd5b600061262d858286016123bd565b925050602061263e85828601612450565b9150509250929050565b60006020828403121561265a57600080fd5b6000612668848285016123d2565b91505092915050565b60006020828403121561268357600080fd5b6000612691848285016123e7565b91505092915050565b600080604083850312156126ad57600080fd5b600083013567ffffffffffffffff8111156126c757600080fd5b6126d385828601612426565b92505060206126e485828601612450565b9150509250929050565b60006020828403121561270057600080fd5b600061270e84828501612450565b91505092915050565b6000806040838503121561272a57600080fd5b600061273885828601612450565b925050602061274985828601612450565b9150509250929050565b61275c81613549565b82525050565b61276b8161355b565b82525050565b600061277c8261344b565b6127868185613461565b93506127968185602086016135cc565b61279f81613767565b840191505092915050565b60006127b582613456565b6127bf8185613472565b93506127cf8185602086016135cc565b6127d881613767565b840191505092915050565b60006127ee82613456565b6127f88185613483565b93506128088185602086016135cc565b80840191505092915050565b6000612821603283613472565b91507f4552433732313a207472616e7366657220746f206e6f6e20455243373231526560008301527f63656976657220696d706c656d656e74657200000000000000000000000000006020830152604082019050919050565b6000612887602683613472565b91507f4f776e61626c653a206e6577206f776e657220697320746865207a65726f206160008301527f64647265737300000000000000000000000000000000000000000000000000006020830152604082019050919050565b60006128ed601c83613472565b91507f4552433732313a20746f6b656e20616c7265616479206d696e746564000000006000830152602082019050919050565b600061292d602483613472565b91507f4552433732313a207472616e7366657220746f20746865207a65726f2061646460008301527f72657373000000000000000000000000000000000000000000000000000000006020830152604082019050919050565b6000612993601983613472565b91507f4552433732313a20617070726f766520746f2063616c6c6572000000000000006000830152602082019050919050565b60006129d3601483613472565b91507f546f6b656e20646f6573206e6f742065786973740000000000000000000000006000830152602082019050919050565b6000612a13601383613472565b91507f546f6b656e207072696365206e6f74206d6574000000000000000000000000006000830152602082019050919050565b6000612a53602c83613472565b91507f4552433732313a206f70657261746f7220717565727920666f72206e6f6e657860008301527f697374656e7420746f6b656e00000000000000000000000000000000000000006020830152604082019050919050565b6000612ab9601683613472565b91507f4e6f7420617574686f72697a656420746f206d696e74000000000000000000006000830152602082019050919050565b6000612af9603883613472565b91507f4552433732313a20617070726f76652063616c6c6572206973206e6f74206f7760008301527f6e6572206e6f7220617070726f76656420666f7220616c6c00000000000000006020830152604082019050919050565b6000612b5f602a83613472565b91507f4552433732313a2062616c616e636520717565727920666f7220746865207a6560008301527f726f2061646472657373000000000000000000000000000000000000000000006020830152604082019050919050565b6000612bc5602983613472565b91507f4552433732313a206f776e657220717565727920666f72206e6f6e657869737460008301527f656e7420746f6b656e00000000000000000000000000000000000000000000006020830152604082019050919050565b6000612c2b602e83613472565b91507f45524337323155524953746f726167653a2055524920736574206f66206e6f6e60008301527f6578697374656e7420746f6b656e0000000000000000000000000000000000006020830152604082019050919050565b6000612c91601283613472565b91507f546f6b656e206e6f7420666f722073616c6500000000000000000000000000006000830152602082019050919050565b6000612cd1602083613472565b91507f4552433732313a206d696e7420746f20746865207a65726f20616464726573736000830152602082019050919050565b6000612d11603183613472565b91507f45524337323155524953746f726167653a2055524920717565727920666f722060008301527f6e6f6e6578697374656e7420746f6b656e0000000000000000000000000000006020830152604082019050919050565b6000612d77602c83613472565b91507f4552433732313a20617070726f76656420717565727920666f72206e6f6e657860008301527f697374656e7420746f6b656e00000000000000000000000000000000000000006020830152604082019050919050565b6000612ddd602083613472565b91507f4f776e61626c653a2063616c6c6572206973206e6f7420746865206f776e65726000830152602082019050919050565b6000612e1d602983613472565b91507f4552433732313a207472616e73666572206f6620746f6b656e2074686174206960008301527f73206e6f74206f776e00000000000000000000000000000000000000000000006020830152604082019050919050565b6000612e83602f83613472565b91507f4552433732314d657461646174613a2055524920717565727920666f72206e6f60008301527f6e6578697374656e7420746f6b656e00000000000000000000000000000000006020830152604082019050919050565b6000612ee9601583613472565b91507f4e6f7420617070726f766564206f72206f776e657200000000000000000000006000830152602082019050919050565b6000612f29602183613472565b91507f4552433732313a20617070726f76616c20746f2063757272656e74206f776e6560008301527f72000000000000000000000000000000000000000000000000000000000000006020830152604082019050919050565b6000612f8f603183613472565b91507f4552433732313a207472616e736665722063616c6c6572206973206e6f74206f60008301527f776e6572206e6f7220617070726f7665640000000000000000000000000000006020830152604082019050919050565b612ff1816135b3565b82525050565b600061300382856127e3565b915061300f82846127e3565b91508190509392505050565b60006020820190506130306000830184612753565b92915050565b600060808201905061304b6000830187612753565b6130586020830186612753565b6130656040830185612fe8565b81810360608301526130778184612771565b905095945050505050565b60006020820190506130976000830184612762565b92915050565b600060208201905081810360008301526130b781846127aa565b905092915050565b600060208201905081810360008301526130d881612814565b9050919050565b600060208201905081810360008301526130f88161287a565b9050919050565b60006020820190508181036000830152613118816128e0565b9050919050565b6000602082019050818103600083015261313881612920565b9050919050565b6000602082019050818103600083015261315881612986565b9050919050565b60006020820190508181036000830152613178816129c6565b9050919050565b6000602082019050818103600083015261319881612a06565b9050919050565b600060208201905081810360008301526131b881612a46565b9050919050565b600060208201905081810360008301526131d881612aac565b9050919050565b600060208201905081810360008301526131f881612aec565b9050919050565b6000602082019050818103600083015261321881612b52565b9050919050565b6000602082019050818103600083015261323881612bb8565b9050919050565b6000602082019050818103600083015261325881612c1e565b9050919050565b6000602082019050818103600083015261327881612c84565b9050919050565b6000602082019050818103600083015261329881612cc4565b9050919050565b600060208201905081810360008301526132b881612d04565b9050919050565b600060208201905081810360008301526132d881612d6a565b9050919050565b600060208201905081810360008301526132f881612dd0565b9050919050565b6000602082019050818103600083015261331881612e10565b9050919050565b6000602082019050818103600083015261333881612e76565b9050919050565b6000602082019050818103600083015261335881612edc565b9050919050565b6000602082019050818103600083015261337881612f1c565b9050919050565b6000602082019050818103600083015261339881612f82565b9050919050565b60006020820190506133b46000830184612fe8565b92915050565b6000604051905081810181811067ffffffffffffffff821117156133e1576133e0613738565b5b8060405250919050565b600067ffffffffffffffff82111561340657613405613738565b5b601f19601f8301169050602081019050919050565b600067ffffffffffffffff82111561343657613435613738565b5b601f19601f8301169050602081019050919050565b600081519050919050565b600081519050919050565b600082825260208201905092915050565b600082825260208201905092915050565b600081905092915050565b6000613499826135b3565b91506134a4836135b3565b9250827fffffffffffffffffffffffffffffffffffffffffffffffffffffffffffffffff038211156134d9576134d86136ab565b5b828201905092915050565b60006134ef826135b3565b91506134fa836135b3565b92508261350a576135096136da565b5b828204905092915050565b6000613520826135b3565b915061352b836135b3565b92508282101561353e5761353d6136ab565b5b828203905092915050565b600061355482613593565b9050919050565b60008115159050919050565b60007fffffffff0000000000000000000000000000000000000000000000000000000082169050919050565b600073ffffffffffffffffffffffffffffffffffffffff82169050919050565b6000819050919050565b82818337600083830152505050565b60005b838110156135ea5780820151818401526020810190506135cf565b838111156135f9576000848401525b50505050565b6000600282049050600182168061361757607f821691505b6020821081141561362b5761362a613709565b5b50919050565b600061363c826135b3565b91507fffffffffffffffffffffffffffffffffffffffffffffffffffffffffffffffff82141561366f5761366e6136ab565b5b600182019050919050565b6000613685826135b3565b9150613690836135b3565b9250826136a05761369f6136da565b5b828206905092915050565b7f4e487b7100000000000000000000000000000000000000000000000000000000600052601160045260246000fd5b7f4e487b7100000000000000000000000000000000000000000000000000000000600052601260045260246000fd5b7f4e487b7100000000000000000000000000000000000000000000000000000000600052602260045260246000fd5b7f4e487b7100000000000000000000000000000000000000000000000000000000600052604160045260246000fd5b6000601f19601f8301169050919050565b61378181613549565b811461378c57600080fd5b50565b6137988161355b565b81146137a357600080fd5b50565b6137af81613567565b81146137ba57600080fd5b50565b6137c6816135b3565b81146137d157600080fd5b5056fea2646970667358221220e70850e4575f066a5e1f3e8b33199ded1f84a6f1b45cb25d3e7e2993875178e164736f6c63430008000033",
  "linkReferences": {},
  "deployedLinkReferences": {}
}