{
  "_format": "hh-sol-artifact-1",
  "contractName": "RoyalT",
  "sourceName": "@royalt/contracts/src/v0.0/RoyalT.sol",
  "abi": [
    {
      "inputs": [
        {
          "internalType": "string",
          "name": "name",
          "type": "string"
        },
        {
          "internalType": "string",
          "name": "symbol",
          "type": "string"
        }
      ],
      "stateMutability": "nonpayable",
      "type": "constructor"
    },
    {
      "anonymous": false,
      "inputs": [
        {
          "indexed": true,
          "internalType": "address",
          "name": "owner",
          "type": "address"
        },
        {
          "indexed": true,
          "internalType": "address",
          "name": "approved",
          "type": "address"
        },
        {
          "indexed": true,
          "internalType": "uint256",
          "name": "tokenId",
          "type": "uint256"
        }
      ],
      "name": "Approval",
      "type": "event"
    },
    {
      "anonymous": false,
      "inputs": [
        {
          "indexed": true,
          "internalType": "address",
          "name": "owner",
          "type": "address"
        },
        {
          "indexed": true,
          "internalType": "address",
          "name": "operator",
          "type": "address"
        },
        {
          "indexed": false,
          "internalType": "bool",
          "name": "approved",
          "type": "bool"
        }
      ],
      "name": "ApprovalForAll",
      "type": "event"
    },
    {
      "anonymous": false,
      "inputs": [
        {
          "indexed": true,
          "internalType": "address",
          "name": "previousOwner",
          "type": "address"
        },
        {
          "indexed": true,
          "internalType": "address",
          "name": "newOwner",
          "type": "address"
        }
      ],
      "name": "OwnershipTransferred",
      "type": "event"
    },
    {
      "anonymous": false,
      "inputs": [
        {
          "indexed": true,
          "internalType": "address",
          "name": "from",
          "type": "address"
        },
        {
          "indexed": true,
          "internalType": "address",
          "name": "to",
          "type": "address"
        },
        {
          "indexed": true,
          "internalType": "uint256",
          "name": "tokenId",
          "type": "uint256"
        }
      ],
      "name": "Transfer",
      "type": "event"
    },
    {
      "inputs": [
        {
          "internalType": "address",
          "name": "to",
          "type": "address"
        },
        {
          "internalType": "uint256",
          "name": "tokenId",
          "type": "uint256"
        }
      ],
      "name": "approve",
      "outputs": [],
      "stateMutability": "nonpayable",
      "type": "function"
    },
    {
      "inputs": [
        {
          "internalType": "address",
          "name": "owner",
          "type": "address"
        }
      ],
      "name": "balanceOf",
      "outputs": [
        {
          "internalType": "uint256",
          "name": "",
          "type": "uint256"
        }
      ],
      "stateMutability": "view",
      "type": "function"
    },
    {
      "inputs": [
        {
          "internalType": "uint256",
          "name": "tokenId",
          "type": "uint256"
        }
      ],
      "name": "getApproved",
      "outputs": [
        {
          "internalType": "address",
          "name": "",
          "type": "address"
        }
      ],
      "stateMutability": "view",
      "type": "function"
    },
    {
      "inputs": [
        {
          "internalType": "address",
          "name": "owner",
          "type": "address"
        },
        {
          "internalType": "address",
          "name": "operator",
          "type": "address"
        }
      ],
      "name": "isApprovedForAll",
      "outputs": [
        {
          "internalType": "bool",
          "name": "",
          "type": "bool"
        }
      ],
      "stateMutability": "view",
      "type": "function"
    },
    {
      "inputs": [
        {
          "internalType": "address payable",
          "name": "holder",
          "type": "address"
        },
        {
          "internalType": "uint8",
          "name": "permille",
          "type": "uint8"
        }
      ],
      "name": "mint",
      "outputs": [],
      "stateMutability": "nonpayable",
      "type": "function"
    },
    {
      "inputs": [],
      "name": "name",
      "outputs": [
        {
          "internalType": "string",
          "name": "",
          "type": "string"
        }
      ],
      "stateMutability": "view",
      "type": "function"
    },
    {
      "inputs": [],
      "name": "originItem",
      "outputs": [
        {
          "internalType": "string",
          "name": "title",
          "type": "string"
        }
      ],
      "stateMutability": "view",
      "type": "function"
    },
    {
      "inputs": [],
      "name": "owner",
      "outputs": [
        {
          "internalType": "address",
          "name": "",
          "type": "address"
        }
      ],
      "stateMutability": "view",
      "type": "function"
    },
    {
      "inputs": [
        {
          "internalType": "uint256",
          "name": "tokenId",
          "type": "uint256"
        }
      ],
      "name": "ownerOf",
      "outputs": [
        {
          "internalType": "address",
          "name": "",
          "type": "address"
        }
      ],
      "stateMutability": "view",
      "type": "function"
    },
    {
      "inputs": [],
      "name": "renounceOwnership",
      "outputs": [],
      "stateMutability": "nonpayable",
      "type": "function"
    },
    {
      "inputs": [
        {
          "internalType": "address",
          "name": "from",
          "type": "address"
        },
        {
          "internalType": "address",
          "name": "to",
          "type": "address"
        },
        {
          "internalType": "uint256",
          "name": "tokenId",
          "type": "uint256"
        }
      ],
      "name": "safeTransferFrom",
      "outputs": [],
      "stateMutability": "nonpayable",
      "type": "function"
    },
    {
      "inputs": [
        {
          "internalType": "address",
          "name": "from",
          "type": "address"
        },
        {
          "internalType": "address",
          "name": "to",
          "type": "address"
        },
        {
          "internalType": "uint256",
          "name": "tokenId",
          "type": "uint256"
        },
        {
          "internalType": "bytes",
          "name": "_data",
          "type": "bytes"
        }
      ],
      "name": "safeTransferFrom",
      "outputs": [],
      "stateMutability": "nonpayable",
      "type": "function"
    },
    {
      "inputs": [
        {
          "internalType": "address",
          "name": "operator",
          "type": "address"
        },
        {
          "internalType": "bool",
          "name": "approved",
          "type": "bool"
        }
      ],
      "name": "setApprovalForAll",
      "outputs": [],
      "stateMutability": "nonpayable",
      "type": "function"
    },
    {
      "inputs": [
        {
          "internalType": "uint256",
          "name": "tokenId",
          "type": "uint256"
        },
        {
          "internalType": "uint8",
          "name": "permille",
          "type": "uint8"
        }
      ],
      "name": "setRoyaltyPermille",
      "outputs": [],
      "stateMutability": "nonpayable",
      "type": "function"
    },
    {
      "inputs": [
        {
          "internalType": "bytes4",
          "name": "interfaceId",
          "type": "bytes4"
        }
      ],
      "name": "supportsInterface",
      "outputs": [
        {
          "internalType": "bool",
          "name": "",
          "type": "bool"
        }
      ],
      "stateMutability": "view",
      "type": "function"
    },
    {
      "inputs": [],
      "name": "symbol",
      "outputs": [
        {
          "internalType": "string",
          "name": "",
          "type": "string"
        }
      ],
      "stateMutability": "view",
      "type": "function"
    },
    {
      "inputs": [
        {
          "internalType": "uint256",
          "name": "tokenId",
          "type": "uint256"
        }
      ],
      "name": "tokenURI",
      "outputs": [
        {
          "internalType": "string",
          "name": "",
          "type": "string"
        }
      ],
      "stateMutability": "view",
      "type": "function"
    },
    {
      "inputs": [
        {
          "internalType": "address",
          "name": "from",
          "type": "address"
        },
        {
          "internalType": "address",
          "name": "to",
          "type": "address"
        },
        {
          "internalType": "uint256",
          "name": "tokenId",
          "type": "uint256"
        }
      ],
      "name": "transferFrom",
      "outputs": [],
      "stateMutability": "nonpayable",
      "type": "function"
    },
    {
      "inputs": [
        {
          "internalType": "address",
          "name": "newOwner",
          "type": "address"
        }
      ],
      "name": "transferOwnership",
      "outputs": [],
      "stateMutability": "nonpayable",
      "type": "function"
    }
  ],
  "bytecode": "0x60806040523480156200001157600080fd5b506040516200333f3803806200333f833981810160405281019062000037919062000258565b818181600090805190602001906200005192919062000136565b5080600190805190602001906200006a92919062000136565b50505060006200007f6200012e60201b60201c565b905080600660006101000a81548173ffffffffffffffffffffffffffffffffffffffff021916908373ffffffffffffffffffffffffffffffffffffffff1602179055508073ffffffffffffffffffffffffffffffffffffffff16600073ffffffffffffffffffffffffffffffffffffffff167f8be0079c531659141344cd1fd0a4f28419497f9722a3daafe3b4186f6b6457e060405160405180910390a35060006007819055505050620003fc565b600033905090565b828054620001449062000368565b90600052602060002090601f016020900481019282620001685760008555620001b4565b82601f106200018357805160ff1916838001178555620001b4565b82800160010185558215620001b4579182015b82811115620001b357825182559160200191906001019062000196565b5b509050620001c39190620001c7565b5090565b5b80821115620001e2576000816000905550600101620001c8565b5090565b6000620001fd620001f784620002ff565b620002cb565b9050828152602081018484840111156200021657600080fd5b6200022384828562000332565b509392505050565b600082601f8301126200023d57600080fd5b81516200024f848260208601620001e6565b91505092915050565b600080604083850312156200026c57600080fd5b600083015167ffffffffffffffff8111156200028757600080fd5b62000295858286016200022b565b925050602083015167ffffffffffffffff811115620002b357600080fd5b620002c1858286016200022b565b9150509250929050565b6000604051905081810181811067ffffffffffffffff82111715620002f557620002f4620003cd565b5b8060405250919050565b600067ffffffffffffffff8211156200031d576200031c620003cd565b5b601f19601f8301169050602081019050919050565b60005b838110156200035257808201518184015260208101905062000335565b8381111562000362576000848401525b50505050565b600060028204905060018216806200038157607f821691505b602082108114156200039857620003976200039e565b5b50919050565b7f4e487b7100000000000000000000000000000000000000000000000000000000600052602260045260246000fd5b7f4e487b7100000000000000000000000000000000000000000000000000000000600052604160045260246000fd5b612f33806200040c6000396000f3fe608060405234801561001057600080fd5b50600436106101215760003560e01c806370a08231116100ad578063a22cb46511610071578063a22cb465146102f4578063b88d4fde14610310578063c87b56dd1461032c578063e985e9c51461035c578063f2fde38b1461038c57610121565b806370a0823114610260578063715018a61461029057806380b1ce831461029a5780638da5cb5b146102b857806395d89b41146102d657610121565b806314638ccf116100f457806314638ccf146101c057806323b872dd146101dc57806342842e0e146101f85780636352211e14610214578063691562a01461024457610121565b806301ffc9a71461012657806306fdde0314610156578063081812fc14610174578063095ea7b3146101a4575b600080fd5b610140600480360381019061013b919061200e565b6103a8565b60405161014d919061284e565b60405180910390f35b61015e61048a565b60405161016b9190612869565b60405180910390f35b61018e60048036038101906101899190612060565b61051c565b60405161019b91906127e7565b60405180910390f35b6101be60048036038101906101b99190611fd2565b6105a1565b005b6101da60048036038101906101d59190612089565b6106b9565b005b6101f660048036038101906101f19190611ecc565b6107b6565b005b610212600480360381019061020d9190611ecc565b610816565b005b61022e60048036038101906102299190612060565b610836565b60405161023b91906127e7565b60405180910390f35b61025e60048036038101906102599190611e54565b6108e8565b005b61027a60048036038101906102759190611e2b565b610a3a565b6040516102879190612aab565b60405180910390f35b610298610af2565b005b6102a2610c2f565b6040516102af9190612869565b60405180910390f35b6102c0610cc3565b6040516102cd91906127e7565b60405180910390f35b6102de610ced565b6040516102eb9190612869565b60405180910390f35b61030e60048036038101906103099190611f96565b610d7f565b005b61032a60048036038101906103259190611f1b565b610f00565b005b61034660048036038101906103419190612060565b610f62565b6040516103539190612869565b60405180910390f35b61037660048036038101906103719190611e90565b611009565b604051610383919061284e565b60405180910390f35b6103a660048036038101906103a19190611e2b565b61109d565b005b60007f80ac58cd000000000000000000000000000000000000000000000000000000007bffffffffffffffffffffffffffffffffffffffffffffffffffffffff1916827bffffffffffffffffffffffffffffffffffffffffffffffffffffffff1916148061047357507f5b5e139f000000000000000000000000000000000000000000000000000000007bffffffffffffffffffffffffffffffffffffffffffffffffffffffff1916827bffffffffffffffffffffffffffffffffffffffffffffffffffffffff1916145b80610483575061048282611249565b5b9050919050565b60606000805461049990612cfa565b80601f01602080910402602001604051908101604052809291908181526020018280546104c590612cfa565b80156105125780601f106104e757610100808354040283529160200191610512565b820191906000526020600020905b8154815290600101906020018083116104f557829003601f168201915b5050505050905090565b6000610527826112b3565b610566576040517f08c379a000000000000000000000000000000000000000000000000000000000815260040161055d906129cb565b60405180910390fd5b6004600083815260200190815260200160002060009054906101000a900473ffffffffffffffffffffffffffffffffffffffff169050919050565b60006105ac82610836565b90508073ffffffffffffffffffffffffffffffffffffffff168373ffffffffffffffffffffffffffffffffffffffff16141561061d576040517f08c379a000000000000000000000000000000000000000000000000000000000815260040161061490612a4b565b60405180910390fd5b8073ffffffffffffffffffffffffffffffffffffffff1661063c61131f565b73ffffffffffffffffffffffffffffffffffffffff16148061066b575061066a8161066561131f565b611009565b5b6106aa576040517f08c379a00000000000000000000000000000000000000000000000000000000081526004016106a19061294b565b60405180910390fd5b6106b48383611327565b505050565b6106c161131f565b73ffffffffffffffffffffffffffffffffffffffff166106df610cc3565b73ffffffffffffffffffffffffffffffffffffffff1614610735576040517f08c379a000000000000000000000000000000000000000000000000000000000815260040161072c906129eb565b60405180910390fd5b6103e88160ff16111561077d576040517f08c379a000000000000000000000000000000000000000000000000000000000815260040161077490612a8b565b60405180910390fd5b6000600960008481526020019081526020016000209050818160000160146101000a81548160ff021916908360ff160217905550505050565b6107c76107c161131f565b826113e0565b610806576040517f08c379a00000000000000000000000000000000000000000000000000000000081526004016107fd90612a6b565b60405180910390fd5b6108118383836114be565b505050565b61083183838360405180602001604052806000815250610f00565b505050565b6000806002600084815260200190815260200160002060009054906101000a900473ffffffffffffffffffffffffffffffffffffffff169050600073ffffffffffffffffffffffffffffffffffffffff168173ffffffffffffffffffffffffffffffffffffffff1614156108df576040517f08c379a00000000000000000000000000000000000000000000000000000000081526004016108d69061298b565b60405180910390fd5b80915050919050565b6108f061131f565b73ffffffffffffffffffffffffffffffffffffffff1661090e610cc3565b73ffffffffffffffffffffffffffffffffffffffff1614610964576040517f08c379a000000000000000000000000000000000000000000000000000000000815260040161095b906129eb565b60405180910390fd5b60405180604001604052808373ffffffffffffffffffffffffffffffffffffffff1681526020018260ff1681525060096000600754815260200190815260200160002060008201518160000160006101000a81548173ffffffffffffffffffffffffffffffffffffffff021916908373ffffffffffffffffffffffffffffffffffffffff16021790555060208201518160000160146101000a81548160ff021916908360ff160217905550905050610a1e3360075461171a565b60076000815480929190610a3190612d2c565b91905055505050565b60008073ffffffffffffffffffffffffffffffffffffffff168273ffffffffffffffffffffffffffffffffffffffff161415610aab576040517f08c379a0000000000000000000000000000000000000000000000000000000008152600401610aa29061296b565b60405180910390fd5b600360008373ffffffffffffffffffffffffffffffffffffffff1673ffffffffffffffffffffffffffffffffffffffff168152602001908152602001600020549050919050565b610afa61131f565b73ffffffffffffffffffffffffffffffffffffffff16610b18610cc3565b73ffffffffffffffffffffffffffffffffffffffff1614610b6e576040517f08c379a0000000000000000000000000000000000000000000000000000000008152600401610b65906129eb565b60405180910390fd5b600073ffffffffffffffffffffffffffffffffffffffff16600660009054906101000a900473ffffffffffffffffffffffffffffffffffffffff1673ffffffffffffffffffffffffffffffffffffffff167f8be0079c531659141344cd1fd0a4f28419497f9722a3daafe3b4186f6b6457e060405160405180910390a36000600660006101000a81548173ffffffffffffffffffffffffffffffffffffffff021916908373ffffffffffffffffffffffffffffffffffffffff160217905550565b6008806000018054610c4090612cfa565b80601f0160208091040260200160405190810160405280929190818152602001828054610c6c90612cfa565b8015610cb95780601f10610c8e57610100808354040283529160200191610cb9565b820191906000526020600020905b815481529060010190602001808311610c9c57829003601f168201915b5050505050905081565b6000600660009054906101000a900473ffffffffffffffffffffffffffffffffffffffff16905090565b606060018054610cfc90612cfa565b80601f0160208091040260200160405190810160405280929190818152602001828054610d2890612cfa565b8015610d755780601f10610d4a57610100808354040283529160200191610d75565b820191906000526020600020905b815481529060010190602001808311610d5857829003601f168201915b5050505050905090565b610d8761131f565b73ffffffffffffffffffffffffffffffffffffffff168273ffffffffffffffffffffffffffffffffffffffff161415610df5576040517f08c379a0000000000000000000000000000000000000000000000000000000008152600401610dec9061290b565b60405180910390fd5b8060056000610e0261131f565b73ffffffffffffffffffffffffffffffffffffffff1673ffffffffffffffffffffffffffffffffffffffff16815260200190815260200160002060008473ffffffffffffffffffffffffffffffffffffffff1673ffffffffffffffffffffffffffffffffffffffff16815260200190815260200160002060006101000a81548160ff0219169083151502179055508173ffffffffffffffffffffffffffffffffffffffff16610eaf61131f565b73ffffffffffffffffffffffffffffffffffffffff167f17307eab39ab6107e8899845ad3d59bd9653f200f220920489ca2b5937696c3183604051610ef4919061284e565b60405180910390a35050565b610f11610f0b61131f565b836113e0565b610f50576040517f08c379a0000000000000000000000000000000000000000000000000000000008152600401610f4790612a6b565b60405180910390fd5b610f5c84848484611738565b50505050565b6060610f6d826112b3565b610fac576040517f08c379a0000000000000000000000000000000000000000000000000000000008152600401610fa390612a2b565b60405180910390fd5b6000610fb6611794565b90506000815111610fd65760405180602001604052806000815250611001565b80610fe0846117ab565b604051602001610ff19291906127c3565b6040516020818303038152906040525b915050919050565b6000600560008473ffffffffffffffffffffffffffffffffffffffff1673ffffffffffffffffffffffffffffffffffffffff16815260200190815260200160002060008373ffffffffffffffffffffffffffffffffffffffff1673ffffffffffffffffffffffffffffffffffffffff16815260200190815260200160002060009054906101000a900460ff16905092915050565b6110a561131f565b73ffffffffffffffffffffffffffffffffffffffff166110c3610cc3565b73ffffffffffffffffffffffffffffffffffffffff1614611119576040517f08c379a0000000000000000000000000000000000000000000000000000000008152600401611110906129eb565b60405180910390fd5b600073ffffffffffffffffffffffffffffffffffffffff168173ffffffffffffffffffffffffffffffffffffffff161415611189576040517f08c379a0000000000000000000000000000000000000000000000000000000008152600401611180906128ab565b60405180910390fd5b8073ffffffffffffffffffffffffffffffffffffffff16600660009054906101000a900473ffffffffffffffffffffffffffffffffffffffff1673ffffffffffffffffffffffffffffffffffffffff167f8be0079c531659141344cd1fd0a4f28419497f9722a3daafe3b4186f6b6457e060405160405180910390a380600660006101000a81548173ffffffffffffffffffffffffffffffffffffffff021916908373ffffffffffffffffffffffffffffffffffffffff16021790555050565b60007f01ffc9a7000000000000000000000000000000000000000000000000000000007bffffffffffffffffffffffffffffffffffffffffffffffffffffffff1916827bffffffffffffffffffffffffffffffffffffffffffffffffffffffff1916149050919050565b60008073ffffffffffffffffffffffffffffffffffffffff166002600084815260200190815260200160002060009054906101000a900473ffffffffffffffffffffffffffffffffffffffff1673ffffffffffffffffffffffffffffffffffffffff1614159050919050565b600033905090565b816004600083815260200190815260200160002060006101000a81548173ffffffffffffffffffffffffffffffffffffffff021916908373ffffffffffffffffffffffffffffffffffffffff160217905550808273ffffffffffffffffffffffffffffffffffffffff1661139a83610836565b73ffffffffffffffffffffffffffffffffffffffff167f8c5be1e5ebec7d5bd14f71427d1e84f3dd0314c0f7b2291e5b200ac8c7c3b92560405160405180910390a45050565b60006113eb826112b3565b61142a576040517f08c379a00000000000000000000000000000000000000000000000000000000081526004016114219061292b565b60405180910390fd5b600061143583610836565b90508073ffffffffffffffffffffffffffffffffffffffff168473ffffffffffffffffffffffffffffffffffffffff1614806114a457508373ffffffffffffffffffffffffffffffffffffffff1661148c8461051c565b73ffffffffffffffffffffffffffffffffffffffff16145b806114b557506114b48185611009565b5b91505092915050565b8273ffffffffffffffffffffffffffffffffffffffff166114de82610836565b73ffffffffffffffffffffffffffffffffffffffff1614611534576040517f08c379a000000000000000000000000000000000000000000000000000000000815260040161152b90612a0b565b60405180910390fd5b600073ffffffffffffffffffffffffffffffffffffffff168273ffffffffffffffffffffffffffffffffffffffff1614156115a4576040517f08c379a000000000000000000000000000000000000000000000000000000000815260040161159b906128eb565b60405180910390fd5b6115af838383611958565b6115ba600082611327565b6001600360008573ffffffffffffffffffffffffffffffffffffffff1673ffffffffffffffffffffffffffffffffffffffff168152602001908152602001600020600082825461160a9190612bf1565b925050819055506001600360008473ffffffffffffffffffffffffffffffffffffffff1673ffffffffffffffffffffffffffffffffffffffff16815260200190815260200160002060008282546116619190612b6a565b92505081905550816002600083815260200190815260200160002060006101000a81548173ffffffffffffffffffffffffffffffffffffffff021916908373ffffffffffffffffffffffffffffffffffffffff160217905550808273ffffffffffffffffffffffffffffffffffffffff168473ffffffffffffffffffffffffffffffffffffffff167fddf252ad1be2c89b69c2b068fc378daa952ba7f163c4a11628f55a4df523b3ef60405160405180910390a4505050565b61173482826040518060200160405280600081525061195d565b5050565b6117438484846114be565b61174f848484846119b8565b61178e576040517f08c379a00000000000000000000000000000000000000000000000000000000081526004016117859061288b565b60405180910390fd5b50505050565b606060405180602001604052806000815250905090565b606060008214156117f3576040518060400160405280600181526020017f30000000000000000000000000000000000000000000000000000000000000008152509050611953565b600082905060005b6000821461182557808061180e90612d2c565b915050600a8261181e9190612bc0565b91506117fb565b60008167ffffffffffffffff811115611867577f4e487b7100000000000000000000000000000000000000000000000000000000600052604160045260246000fd5b6040519080825280601f01601f1916602001820160405280156118995781602001600182028036833780820191505090505b5090505b6000851461194c576001826118b29190612bf1565b9150600a856118c19190612d75565b60306118cd9190612b6a565b60f81b818381518110611909577f4e487b7100000000000000000000000000000000000000000000000000000000600052603260045260246000fd5b60200101907effffffffffffffffffffffffffffffffffffffffffffffffffffffffffffff1916908160001a905350600a856119459190612bc0565b945061189d565b8093505050505b919050565b505050565b6119678383611b4f565b61197460008484846119b8565b6119b3576040517f08c379a00000000000000000000000000000000000000000000000000000000081526004016119aa9061288b565b60405180910390fd5b505050565b60006119d98473ffffffffffffffffffffffffffffffffffffffff16611d1d565b15611b42578373ffffffffffffffffffffffffffffffffffffffff1663150b7a02611a0261131f565b8786866040518563ffffffff1660e01b8152600401611a249493929190612802565b602060405180830381600087803b158015611a3e57600080fd5b505af1925050508015611a6f57506040513d601f19601f82011682018060405250810190611a6c9190612037565b60015b611af2573d8060008114611a9f576040519150601f19603f3d011682016040523d82523d6000602084013e611aa4565b606091505b50600081511415611aea576040517f08c379a0000000000000000000000000000000000000000000000000000000008152600401611ae19061288b565b60405180910390fd5b805181602001fd5b63150b7a0260e01b7bffffffffffffffffffffffffffffffffffffffffffffffffffffffff1916817bffffffffffffffffffffffffffffffffffffffffffffffffffffffff191614915050611b47565b600190505b949350505050565b600073ffffffffffffffffffffffffffffffffffffffff168273ffffffffffffffffffffffffffffffffffffffff161415611bbf576040517f08c379a0000000000000000000000000000000000000000000000000000000008152600401611bb6906129ab565b60405180910390fd5b611bc8816112b3565b15611c08576040517f08c379a0000000000000000000000000000000000000000000000000000000008152600401611bff906128cb565b60405180910390fd5b611c1460008383611958565b6001600360008473ffffffffffffffffffffffffffffffffffffffff1673ffffffffffffffffffffffffffffffffffffffff1681526020019081526020016000206000828254611c649190612b6a565b92505081905550816002600083815260200190815260200160002060006101000a81548173ffffffffffffffffffffffffffffffffffffffff021916908373ffffffffffffffffffffffffffffffffffffffff160217905550808273ffffffffffffffffffffffffffffffffffffffff16600073ffffffffffffffffffffffffffffffffffffffff167fddf252ad1be2c89b69c2b068fc378daa952ba7f163c4a11628f55a4df523b3ef60405160405180910390a45050565b600080823b905060008111915050919050565b6000611d43611d3e84612af7565b612ac6565b905082815260208101848484011115611d5b57600080fd5b611d66848285612cb8565b509392505050565b600081359050611d7d81612e73565b92915050565b600081359050611d9281612e8a565b92915050565b600081359050611da781612ea1565b92915050565b600081359050611dbc81612eb8565b92915050565b600081519050611dd181612eb8565b92915050565b600082601f830112611de857600080fd5b8135611df8848260208601611d30565b91505092915050565b600081359050611e1081612ecf565b92915050565b600081359050611e2581612ee6565b92915050565b600060208284031215611e3d57600080fd5b6000611e4b84828501611d6e565b91505092915050565b60008060408385031215611e6757600080fd5b6000611e7585828601611d83565b9250506020611e8685828601611e16565b9150509250929050565b60008060408385031215611ea357600080fd5b6000611eb185828601611d6e565b9250506020611ec285828601611d6e565b9150509250929050565b600080600060608486031215611ee157600080fd5b6000611eef86828701611d6e565b9350506020611f0086828701611d6e565b9250506040611f1186828701611e01565b9150509250925092565b60008060008060808587031215611f3157600080fd5b6000611f3f87828801611d6e565b9450506020611f5087828801611d6e565b9350506040611f6187828801611e01565b925050606085013567ffffffffffffffff811115611f7e57600080fd5b611f8a87828801611dd7565b91505092959194509250565b60008060408385031215611fa957600080fd5b6000611fb785828601611d6e565b9250506020611fc885828601611d98565b9150509250929050565b60008060408385031215611fe557600080fd5b6000611ff385828601611d6e565b925050602061200485828601611e01565b9150509250929050565b60006020828403121561202057600080fd5b600061202e84828501611dad565b91505092915050565b60006020828403121561204957600080fd5b600061205784828501611dc2565b91505092915050565b60006020828403121561207257600080fd5b600061208084828501611e01565b91505092915050565b6000806040838503121561209c57600080fd5b60006120aa85828601611e01565b92505060206120bb85828601611e16565b9150509250929050565b6120ce81612c25565b82525050565b6120dd81612c49565b82525050565b60006120ee82612b27565b6120f88185612b3d565b9350612108818560208601612cc7565b61211181612e62565b840191505092915050565b600061212782612b32565b6121318185612b4e565b9350612141818560208601612cc7565b61214a81612e62565b840191505092915050565b600061216082612b32565b61216a8185612b5f565b935061217a818560208601612cc7565b80840191505092915050565b6000612193603283612b4e565b91507f4552433732313a207472616e7366657220746f206e6f6e20455243373231526560008301527f63656976657220696d706c656d656e74657200000000000000000000000000006020830152604082019050919050565b60006121f9602683612b4e565b91507f4f776e61626c653a206e6577206f776e657220697320746865207a65726f206160008301527f64647265737300000000000000000000000000000000000000000000000000006020830152604082019050919050565b600061225f601c83612b4e565b91507f4552433732313a20746f6b656e20616c7265616479206d696e746564000000006000830152602082019050919050565b600061229f602483612b4e565b91507f4552433732313a207472616e7366657220746f20746865207a65726f2061646460008301527f72657373000000000000000000000000000000000000000000000000000000006020830152604082019050919050565b6000612305601983612b4e565b91507f4552433732313a20617070726f766520746f2063616c6c6572000000000000006000830152602082019050919050565b6000612345602c83612b4e565b91507f4552433732313a206f70657261746f7220717565727920666f72206e6f6e657860008301527f697374656e7420746f6b656e00000000000000000000000000000000000000006020830152604082019050919050565b60006123ab603883612b4e565b91507f4552433732313a20617070726f76652063616c6c6572206973206e6f74206f7760008301527f6e6572206e6f7220617070726f76656420666f7220616c6c00000000000000006020830152604082019050919050565b6000612411602a83612b4e565b91507f4552433732313a2062616c616e636520717565727920666f7220746865207a6560008301527f726f2061646472657373000000000000000000000000000000000000000000006020830152604082019050919050565b6000612477602983612b4e565b91507f4552433732313a206f776e657220717565727920666f72206e6f6e657869737460008301527f656e7420746f6b656e00000000000000000000000000000000000000000000006020830152604082019050919050565b60006124dd602083612b4e565b91507f4552433732313a206d696e7420746f20746865207a65726f20616464726573736000830152602082019050919050565b600061251d602c83612b4e565b91507f4552433732313a20617070726f76656420717565727920666f72206e6f6e657860008301527f697374656e7420746f6b656e00000000000000000000000000000000000000006020830152604082019050919050565b6000612583602083612b4e565b91507f4f776e61626c653a2063616c6c6572206973206e6f7420746865206f776e65726000830152602082019050919050565b60006125c3602983612b4e565b91507f4552433732313a207472616e73666572206f6620746f6b656e2074686174206960008301527f73206e6f74206f776e00000000000000000000000000000000000000000000006020830152604082019050919050565b6000612629602f83612b4e565b91507f4552433732314d657461646174613a2055524920717565727920666f72206e6f60008301527f6e6578697374656e7420746f6b656e00000000000000000000000000000000006020830152604082019050919050565b600061268f602183612b4e565b91507f4552433732313a20617070726f76616c20746f2063757272656e74206f776e6560008301527f72000000000000000000000000000000000000000000000000000000000000006020830152604082019050919050565b60006126f5603183612b4e565b91507f4552433732313a207472616e736665722063616c6c6572206973206e6f74206f60008301527f776e6572206e6f7220617070726f7665640000000000000000000000000000006020830152604082019050919050565b600061275b602483612b4e565b91507f5065726d696c6c652063616e6e6f742062652067726561746572207468616e2060008301527f31303030000000000000000000000000000000000000000000000000000000006020830152604082019050919050565b6127bd81612ca1565b82525050565b60006127cf8285612155565b91506127db8284612155565b91508190509392505050565b60006020820190506127fc60008301846120c5565b92915050565b600060808201905061281760008301876120c5565b61282460208301866120c5565b61283160408301856127b4565b818103606083015261284381846120e3565b905095945050505050565b600060208201905061286360008301846120d4565b92915050565b60006020820190508181036000830152612883818461211c565b905092915050565b600060208201905081810360008301526128a481612186565b9050919050565b600060208201905081810360008301526128c4816121ec565b9050919050565b600060208201905081810360008301526128e481612252565b9050919050565b6000602082019050818103600083015261290481612292565b9050919050565b60006020820190508181036000830152612924816122f8565b9050919050565b6000602082019050818103600083015261294481612338565b9050919050565b600060208201905081810360008301526129648161239e565b9050919050565b6000602082019050818103600083015261298481612404565b9050919050565b600060208201905081810360008301526129a48161246a565b9050919050565b600060208201905081810360008301526129c4816124d0565b9050919050565b600060208201905081810360008301526129e481612510565b9050919050565b60006020820190508181036000830152612a0481612576565b9050919050565b60006020820190508181036000830152612a24816125b6565b9050919050565b60006020820190508181036000830152612a448161261c565b9050919050565b60006020820190508181036000830152612a6481612682565b9050919050565b60006020820190508181036000830152612a84816126e8565b9050919050565b60006020820190508181036000830152612aa48161274e565b9050919050565b6000602082019050612ac060008301846127b4565b92915050565b6000604051905081810181811067ffffffffffffffff82111715612aed57612aec612e33565b5b8060405250919050565b600067ffffffffffffffff821115612b1257612b11612e33565b5b601f19601f8301169050602081019050919050565b600081519050919050565b600081519050919050565b600082825260208201905092915050565b600082825260208201905092915050565b600081905092915050565b6000612b7582612ca1565b9150612b8083612ca1565b9250827fffffffffffffffffffffffffffffffffffffffffffffffffffffffffffffffff03821115612bb557612bb4612da6565b5b828201905092915050565b6000612bcb82612ca1565b9150612bd683612ca1565b925082612be657612be5612dd5565b5b828204905092915050565b6000612bfc82612ca1565b9150612c0783612ca1565b925082821015612c1a57612c19612da6565b5b828203905092915050565b6000612c3082612c81565b9050919050565b6000612c4282612c81565b9050919050565b60008115159050919050565b60007fffffffff0000000000000000000000000000000000000000000000000000000082169050919050565b600073ffffffffffffffffffffffffffffffffffffffff82169050919050565b6000819050919050565b600060ff82169050919050565b82818337600083830152505050565b60005b83811015612ce5578082015181840152602081019050612cca565b83811115612cf4576000848401525b50505050565b60006002820490506001821680612d1257607f821691505b60208210811415612d2657612d25612e04565b5b50919050565b6000612d3782612ca1565b91507fffffffffffffffffffffffffffffffffffffffffffffffffffffffffffffffff821415612d6a57612d69612da6565b5b600182019050919050565b6000612d8082612ca1565b9150612d8b83612ca1565b925082612d9b57612d9a612dd5565b5b828206905092915050565b7f4e487b7100000000000000000000000000000000000000000000000000000000600052601160045260246000fd5b7f4e487b7100000000000000000000000000000000000000000000000000000000600052601260045260246000fd5b7f4e487b7100000000000000000000000000000000000000000000000000000000600052602260045260246000fd5b7f4e487b7100000000000000000000000000000000000000000000000000000000600052604160045260246000fd5b6000601f19601f8301169050919050565b612e7c81612c25565b8114612e8757600080fd5b50565b612e9381612c37565b8114612e9e57600080fd5b50565b612eaa81612c49565b8114612eb557600080fd5b50565b612ec181612c55565b8114612ecc57600080fd5b50565b612ed881612ca1565b8114612ee357600080fd5b50565b612eef81612cab565b8114612efa57600080fd5b5056fea264697066735822122039b59ed5fe4724a0a9d6c8ed7e2e4fd816f8131f62c14f2f4d13f4104256cf4864736f6c63430008000033",
  "linkReferences": {},
  "deployedLinkReferences": {}
}